:020000040800F2
:100000006806002099010008A1010008A30100086A
:10001000A5010008A7010008A901000800000000D0
:10002000000000000000000000000000AB0100081C
:10003000AD01000800000000AF010008B101000898
:10004000B3010008B3010008B3010008B3010008C0
:10005000B3010008B301000855020008B30100080D
:10006000B3010008B3010008B3010008B3010008A0
:10007000B3010008B3010008B3010008B301000890
:10008000B3010008B3010008B3010008B301000880
:10009000B3010008B3010008B3010008B301000870
:1000A000B3010008B3010008B3010008B301000860
:1000B000B3010008B3010008B3010008B301000850
:1000C000B3010008B3010008B3010008B301000840
:1000D000B3010008B3010008B3010008B301000830
:1000E000B3010008B3010008B301000800F002F8F2
:1000F00000F042F814A696E8000CB244B344DA4586
:1001000001D100F039F8BAE80F000FA696E83000E8
:10011000A5EB040504EB0607AAEB0704A7F101070A
:100120004FEA15154FEA3414A4F10104AC4201D38F
:1001300000F022F813F0010F18BFFB1A43F001037F
:1001400000F001F8DBE71847B0040000C00400002D
:10015000704700000023002400250026103A28BF25
:1001600078C1FBD8520728BF30C148BF0B60704729
:100170001FB51FBD10B510BD00F031F81146FFF7D7
:10018000F7FF00F009FA00F04FF803B4FFF7F2FFB1
:1001900003BC00F057F800000948804709480047B1
:1001A000FEE7FEE7FEE7FEE7FEE7FEE7FEE7FEE727
:1001B000FEE7FEE704480549054A064B7047000084
:1001C00089040008ED00000868000020680600208F
:1001D000680200206802002070477047704775462B
:1001E00000F02CF8AE4605006946534620F00700A3
:1001F000854618B020B5FFF7DDFFBDE820404FF081
:1002000000064FF000074FF000084FF0000BAC461F
:10021000ACE8C009ACE8C009ACE8C009ACE8C0096A
:1002200021F007018D46704710B50446AFF30080FA
:100230002046BDE81040FFF7A8BF00000048704707
:100240000000002001491820ABBEFEE72600020096
:100250007047000080B5012000F014F830B140F282
:100260006000C2F200000168013101600120BDE8B8
:10027000804000F001B8000040F21441C4F20101D6
:100280000860704740F20041C4F201010A68496900
:100290000240084018BF0120002A18BF0122104068
:1002A000704700008179002940F20041C4F2010149
:1002B0001FD002680B6893430B604B6893434B60FD
:1002C000037943EA010CDCF800301A43CCF8002033
:1002D00002688B6893438B60CB689343CB60407913
:1002E00010280ED1886810438860C8681043C86021
:1002F00070470279006811430A6822EA000008602A
:1003000070470843016811430160704710B50C2223
:10031000082402EA810201F0FC01C4F201044FF05A
:100320000F0C51F804E00CFA02F32EEA03030B5110
:100330000B5990401843085110BD0000CA7802F0D4
:100340000F0CD30644BF8B784CEA030C2DE9F04721
:1003500009880B0625D082465AF8144B00F1100E7E
:1003600000254FF001094FF00F08002706E000BFFD
:100370001E600137082F05F1040511D009FA07F6B0
:100380000E42F6D008FA05F324EA03030CFA05F44A
:100390001C43282A5346EBD0482AEAD17346E7E7A4
:1003A0000460B1F5807F38BFBDE8F087436800F195
:1003B000100E00F1140900254FF4807A4FF00F0859
:1003C000002705E034600137082F05F1040512D03D
:1003D0000AFA07F404EA0106A642F4D108FA05F67F
:1003E000B3430CFA05F63343282A4E46EAD0482A8E
:1003F000E9D17646E6E74360BDE8F08710B5C178FD
:1004000000294EF20011CEF200011AD04EF60C5225
:10041000CEF200021268072323EA12220F23C2F150
:10042000040C23FA02F24378847890F800E003FA8F
:100430000CF322401A43120101EB0E0383F8002350
:1004400000E080310078012300F01F0203FA02F27D
:10045000C0F3421041F8202010BD000040F0806041
:100460004EF60C5140F0FD70CEF20001086070476E
:10047000002941F21801C4F202010A680CBF22EA05
:10048000000010430860704782B041F20400C4F2DB
:10049000020050F8041C002241F0010140F8041C45
:1004A0000168CFF6FF021140016050F8041C4FF6BE
:1004B000FF72CFF6F662114040F8041C50F8041C9D
:1004C00021F4802140F8041C016821F4FE01016040
:1004D0004FF41F01416000210191009150F8041C6C
:1004E00041F4803140F8041C50F8041C01F4003140
:1004F0000091019901310191009919B90199B1F562
:10050000A06FF1D150F8041C890354BF00210121D0
:1005100000910099012936D142F20001C4F2020192
:100520000A6842F010020A600A6822F007020A60B4
:100530000A6842F002020A60016801600168016015
:10054000016841F480610160016821F47C1101605F
:10055000016841F4E811016050F8041C41F0807119
:1005600040F8041C50F8041C8901FBD5016821F0F7
:1005700003010160016841F002010160016801F0BE
:100580000C010829FAD14EF60850CEF200004FF0C7
:100590000061016002B0704782B004200121012493
:1005A000FFF766FF01200121FFF762FF0120C4F67B
:1005B0000300009040F60000C4F201006946FFF716
:1005C000BDFE00200021FFF7A1FE4FF44060ADF812
:1005D0000400684600948DF80640FFF763FE4FF470
:1005E000A060FFF73BFF0620C0F2001000906846B5
:1005F000FFF704FFFEE700000806000800000020E7
:08060000680600005401000827
:04000005080000ED02
:00000001FF
