:020000040800F2
:100000006006002099010008A1010008A301000872
:10001000A5010008A7010008A901000800000000D0
:10002000000000000000000000000000AB0100081C
:10003000AD01000800000000AF010008B101000898
:10004000B3010008B3010008B3010008B3010008C0
:10005000B3010008B3010008B3010008B3010008B0
:10006000B3010008B3010008B3010008B3010008A0
:10007000B3010008B3010008B3010008B301000890
:10008000B3010008B3010008B3010008B301000880
:10009000B3010008B3010008B3010008B301000870
:1000A000B3010008B3010008B3010008B301000860
:1000B000B3010008B3010008B3010008B301000850
:1000C000B3010008B3010008B3010008B301000840
:1000D000B301000829050008B3010008B3010008B6
:1000E000B3010008B3010008B301000800F002F8F2
:1000F00000F042F814A696E8000CB244B344DA4586
:1001000001D100F039F8BAE80F000FA696E83000E8
:10011000A5EB040504EB0607AAEB0704A7F101070A
:100120004FEA15154FEA3414A4F10104AC4201D38F
:1001300000F022F813F0010F18BFFB1A43F001037F
:1001400000F001F8DBE71847100600002006000069
:10015000704700000023002400250026103A28BF25
:1001600078C1FBD8520728BF30C148BF0B60704729
:100170001FB51FBD10B510BD00F031F81146FFF7D7
:10018000F7FF00F09FFA00F04FF803B4FFF7F2FF1B
:1001900003BC00F057F800000948804709480047B1
:1001A000FEE7FEE7FEE7FEE7FEE7FEE7FEE7FEE727
:1001B000FEE7FEE704480549054A064B7047000084
:1001C00019040008ED00000860000020600600200F
:1001D000600200206002002070477047704775463B
:1001E00000F02CF8AE4605006946534620F00700A3
:1001F000854618B020B5FFF7DDFFBDE820404FF081
:1002000000064FF000074FF000084FF0000BAC461F
:10021000ACE8C009ACE8C009ACE8C009ACE8C0096A
:1002200021F007018D46704710B50446AFF30080FA
:100230002046BDE81040FFF7A8BF00000048704707
:100240000000002001491820ABBEFEE72600020096
:1002500070470000CA7802F00F0CD30644BF8B78B9
:100260004CEA030C2DE9F04709880B0625D082469D
:100270005AF8144B00F1100E00254FF001094FF011
:100280000F08002706E000BF1E600137082F05F1A8
:10029000040511D009FA07F60E42F6D008FA05F364
:1002A00024EA03030CFA05F41C43282A5346EBD036
:1002B000482AEAD17346E7E70460B1F5807F38BF8A
:1002C000BDE8F087436800F1100E00F11409002525
:1002D0004FF4807A4FF00F08002705E034600137B3
:1002E000082F05F1040512D00AFA07F404EA010602
:1002F000A642F4D108FA05F6B3430CFA05F63343E7
:10030000282A4E46EAD0482AE9D17646E6E74360F5
:10031000BDE8F08710B5C17800294EF20011CEF289
:1003200000011AD04EF60C52CEF2000212680723DA
:1003300023EA12220F23C2F1040C23FA02F24378BB
:10034000847890F800E003FA0CF322401A4312017B
:1003500001EB0E0383F8002300E0803100780123D5
:1003600000F01F0203FA02F2C0F3421041F820200D
:1003700010BD0000002941F21801C4F202010A6810
:100380000CBF22EA000010430860704710B541F22C
:100390000404C4F20204226802F00C02082A41F2AA
:1003A0000022C0F27A0212D12368D4F800C0C3F34D
:1003B000834E5FEACC330EF1020C02D523689B0317
:1003C00003D540F60012C0F23D020CFB02F20260BF
:1003D000226840F24673C2F30312C0F600039A5C2F
:1003E0000168D14041602268C2F302229A5C21FA7E
:1003F00002F282602268C2F3C2229A5C40F2427327
:10040000D140C1602268C0F60003C2F381329A5C19
:10041000B1FBF2F1016110BD82B041F20400C4F2FF
:10042000020050F8041C002241F0010140F8041CB5
:100430000168CFF6FF021140016050F8041C4FF62E
:10044000FF72CFF6F662114040F8041C50F8041C0D
:1004500021F4802140F8041C016821F4FE010160B0
:100460004FF41F01416000210191009150F8041CDC
:1004700041F4803140F8041C50F8041C01F40031B0
:100480000091019901310191009919B90199B1F5D2
:10049000A06FF1D150F8041C890354BF0021012141
:1004A00000910099012936D142F20001C4F2020103
:1004B0000A6842F010020A600A6822F007020A6025
:1004C0000A6842F002020A60016801600168016086
:1004D000016841F480610160016821F47C110160D0
:1004E000016841F4E811016050F8041C41F080718A
:1004F00040F8041C50F8041C8901FBD5016821F068
:1005000003010160016841F002010160016801F02E
:100510000C010829FAD14EF60850CEF200004FF037
:100520000061016002B0704710B543F60004C4F2E8
:100530000104204640F2255100F030F8002808BFA1
:1005400010BD204600F0B6F8C1B2204600F0B6F863
:100550002046402100F01CF80028F9D0204640F247
:100560002551BDE8104000F001B80000090A012241
:1005700002FA01F1C9430180704700008289002915
:1005800018BF012122F4005242EA413181817047B3
:100590000088084018BF012070470000C1F34212D4
:1005A000022A06D0012A14BF00F1140200F10C0245
:1005B00001E000F110021288008801F01F03090A0F
:1005C000DA40C840104000F001007047C1F3421308
:1005D00001F01F0C1421022B08BF1021012B4FF03A
:1005E000010308BF0C21002A03FA0CF243580CBF88
:1005F00023EA02021A4342507047000070B586B0E9
:100600000446008A0D46C98820F4405008432082E1
:10061000A0894EF6F3110840A9882A896B890843FE
:1006200010431843A081A08AA98920F44070084390
:1006300001AEA0823046FFF7A9FE43F6000106F1A5
:100640000800C4F201018C4208BF06F10C000068EA
:100650001922B4F90C1050432A680123B1F1FF3F6D
:10066000C8BF022302FA03F1B0FBF1F048F21F51B8
:10067000C5F2EB11A0FB01235A096FF0630302FBE3
:100680000300B4F90C300326B3F1FF3FC8BF0426C2
:1006900000FA06F000F13200A0FB01014FF0070064
:1006A000C8BF0F2000EA511040EA0210208106B0B6
:1006B00070BD000080886FF35F2070476FF35F218B
:1006C0008180704784B044F204000121FFF752FE9C
:1006D00043F6000440F20020C4F20104C1F6030016
:1006E000A4F540556E46009028463146FFF7B2FD0E
:1006F00040F20040C0F20340009028463146FFF728
:10070000A9FD4FF4165000900020ADF80C000190A8
:100710004FF44020029069462046FFF76FFF2046C5
:1007200040F225510122FFF751FF20460121FFF73A
:1007300025FF2520C0F2001000906846FFF7EAFD73
:10074000FEE70204060800000000010203040102A3
:1007500003040607080900006807000800000020DD
:080760006006000054010008CE
:04000005080000ED02
:00000001FF
