:020000040800F2
:100000006006002099010008A1010008A301000872
:10001000A5010008A7010008A901000800000000D0
:10002000000000000000000000000000AB0100081C
:10003000AD01000800000000AF010008B101000898
:10004000B3010008B3010008B3010008B3010008C0
:10005000B3010008B3010008B3010008B3010008B0
:10006000B3010008B3010008B3010008B3010008A0
:10007000B3010008B3010008B3010008B301000890
:10008000B3010008B3010008B3010008B301000880
:10009000B3010008B3010008B3010008B301000870
:1000A000B3010008B3010008B3010008B301000860
:1000B000B3010008B3010008B3010008B301000850
:1000C000B3010008B3010008B3010008B301000840
:1000D000B3010008B3010008B3010008B301000830
:1000E000B3010008B3010008B301000800F002F8F2
:1000F00000F042F814A696E8000CB244B344DA4586
:1001000001D100F039F8BAE80F000FA696E83000E8
:10011000A5EB040504EB0607AAEB0704A7F101070A
:100120004FEA15154FEA3414A4F10104AC4201D38F
:1001300000F022F813F0010F18BFFB1A43F001037F
:1001400000F001F8DBE71847F004000000050000AC
:10015000704700000023002400250026103A28BF25
:1001600078C1FBD8520728BF30C148BF0B60704729
:100170001FB51FBD10B510BD00F031F81146FFF7D7
:10018000F7FF00F01DFA00F04FF803B4FFF7F2FF9D
:1001900003BC00F057F800000948804709480047B1
:1001A000FEE7FEE7FEE7FEE7FEE7FEE7FEE7FEE727
:1001B000FEE7FEE704480549054A064B7047000084
:1001C000B1040008ED000008600000206006002077
:1001D000600200206002002070477047704775463B
:1001E00000F02CF8AE4605006946534620F00700A3
:1001F000854618B020B5FFF7DDFFBDE820404FF081
:1002000000064FF000074FF000084FF0000BAC461F
:10021000ACE8C009ACE8C009ACE8C009ACE8C0096A
:1002200021F007018D46704710B50446AFF30080FA
:100230002046BDE81040FFF7A8BF00000048704707
:100240000000002001491820ABBEFEE72600020096
:1002500070470000CA7802F00F0CD30644BF8B78B9
:100260004CEA030C2DE9F04709880B0625D082469D
:100270005AF8144B00F1100E00254FF001094FF011
:100280000F08002706E000BF1E600137082F05F1A8
:10029000040511D009FA07F60E42F6D008FA05F364
:1002A00024EA03030CFA05F41C43282A5346EBD036
:1002B000482AEAD17346E7E70460B1F5807F38BF8A
:1002C000BDE8F087436800F1100E00F11409002525
:1002D0004FF4807A4FF00F08002705E034600137B3
:1002E000082F05F1040512D00AFA07F404EA010602
:1002F000A642F4D108FA05F6B3430CFA05F63343E7
:10030000282A4E46EAD0482AE9D17646E6E74360F5
:10031000BDE8F0870288002918BF012122F0010200
:10032000114401807047000070B586B00446808893
:100330000D4620F03F0601A800F074F803994DF631
:100340008360C4F21B30A1FB000346EA9340A08007
:10035000208820F0010020802A6848F2A060C0F2C6
:10036000010082424FEA934008D85200B1FBF2F1FB
:100370004FF6FC72114208BF042124E0EB884BF6D3
:10038000FF76B34204D102EB4202B1FBF2F105E089
:1003900019235A43B1FBF2F141F480410A466FF34D
:1003A0001F32B2FA82F25209114348F20002CFF62C
:1003B000FF7211434FF49672504348F63812C0F260
:1003C0004102A0FB022001302084A18320884FF647
:1003D000F53140F00100208020886A890840A98812
:1003E000084310432080A88929890843208106B04A
:1003F00070BD0000002941F21C01C4F202010A682C
:100400000CBF22EA0000104308607047002941F247
:100410001801C4F202010A680CBF22EA000010436E
:100420000860704710B541F20404C4F20204226867
:1004300002F00C02082A41F20022C0F27A0212D124
:100440002368D4F800C0C3F3834E5FEACC330EF1C7
:10045000020C02D523689B0303D540F60012C0F2BC
:100460003D020CFB02F20260226840F22663C2F3F6
:100470000312C0F600039A5C0168D1404160226813
:10048000C2F302229A5C21FA02F282602268C2F36D
:10049000C2229A5C40F22263D140C1602268C0F659
:1004A0000003C2F381329A5CB1FBF2F1016110BD2D
:1004B00082B041F20400C4F2020050F8041C002291
:1004C00041F0010140F8041C0168CFF6FF02114021
:1004D000016050F8041C4FF6FF72CFF6F66211402F
:1004E00040F8041C50F8041C21F4802140F8041C3E
:1004F000016821F4FE0101604FF41F0141600021F9
:100500000191009150F8041C41F4803140F8041C22
:1005100050F8041C01F4003100910199013101915E
:10052000009919B90199B1F5A06FF1D150F8041CE7
:10053000890354BF0021012100910099012936D17E
:1005400042F20001C4F202010A6842F010020A609D
:100550000A6822F007020A600A6842F002020A6092
:100560000168016001680160016841F48061016017
:10057000016821F47C110160016841F4E811016017
:1005800050F8041C41F0807140F8041C50F8041C21
:100590008901FBD5016821F003010160016841F088
:1005A00002010160016801F00C010829FAD14EF640
:1005B0000850CEF200004FF00061016002B07047B9
:1005C00084B008200121FFF721FFC02045F200443C
:1005D000C1F60340C4F20004009004F538406946B7
:1005E000FFF738FE4FF400100121FFF703FF002052
:1005F000CBF6FF70019048F2A060C0F201000090BD
:100600004FF0806002904FF48040ADF80C006946D6
:100610002046FFF789FE20460121FFF77BFE00BF41
:10062000FEE70204060800000000010203040102C4
:10063000030406070809000048060008000000201F
:080640006006000054010008EF
:04000005080000ED02
:00000001FF
