:020000040800F2
:100000006006002099010008A1010008A301000872
:10001000A5010008A7010008A901000800000000D0
:10002000000000000000000000000000AB0100081C
:10003000AD01000800000000AF010008B101000898
:10004000B3010008B3010008B3010008B3010008C0
:10005000B3010008B3010008B3010008B3010008B0
:10006000B3010008B3010008B3010008B3010008A0
:10007000B3010008B3010008B3010008B301000890
:10008000B3010008B3010008B3010008B301000880
:10009000B3010008B3010008B3010008B301000870
:1000A000B3010008B3010008B3010008B301000860
:1000B000B3010008B3010008B3010008B301000850
:1000C000B3010008B3010008B3010008B301000840
:1000D000B3010008B3010008B3010008B301000830
:1000E000B3010008B3010008B301000800F002F8F2
:1000F00000F042F814A696E8000CB244B344DA4586
:1001000001D100F039F8BAE80F000FA696E83000E8
:10011000A5EB040504EB0607AAEB0704A7F101070A
:100120004FEA15154FEA3414A4F10104AC4201D38F
:1001300000F022F813F0010F18BFFB1A43F001037F
:1001400000F001F8DBE7184790020000A002000071
:10015000704700000023002400250026103A28BF25
:1001600078C1FBD8520728BF30C148BF0B60704729
:100170001FB51FBD10B510BD00F031F81146FFF7D7
:10018000F7FF00F011F900F04FF803B4FFF7F2FFAA
:1001900003BC00F057F800000948804709480047B1
:1001A000FEE7FEE7FEE7FEE7FEE7FEE7FEE7FEE727
:1001B000FEE7FEE704480549054A064B7047000084
:1001C00099020008ED000008600000206006002091
:1001D000600200206002002070477047704775463B
:1001E00000F02CF8AE4605006946534620F00700A3
:1001F000854618B020B5FFF7DDFFBDE820404FF081
:1002000000064FF000074FF000084FF0000BAC461F
:10021000ACE8C009ACE8C009ACE8C009ACE8C0096A
:1002200021F007018D46704710B50446AFF30080FA
:100230002046BDE81040FFF7A8BF00000048704707
:100240000000002001491820ABBEFEE72600020096
:100250007047000041F20000C4F202000168002271
:1002600041F0010101604168CFF6FF021140416099
:1002700001684FF6FF72CFF6F66211400160016827
:1002800021F480210160416821F4FE0141604FF4B6
:100290001F0181607047000082B041F20400C4F287
:1002A000020050F8041C002241F0010140F8041C37
:1002B0000168CFF6FF021140016050F8041C4FF6B0
:1002C000FF72CFF6F662114040F8041C50F8041C8F
:1002D00021F4802140F8041C016821F4FE01016032
:1002E0004FF41F01416000210191009150F8041C5E
:1002F00041F4803140F8041C50F8041C01F4003132
:100300000091019901310191009919B90199B1F553
:10031000A06FF1D150F8041C890354BF00210121C2
:1003200000910099012936D142F20001C4F2020184
:100330000A6842F010020A600A6822F007020A60A6
:100340000A6842F002020A60016801600168016007
:10035000016841F480610160016821F47C11016051
:10036000016841F4E811016050F8041C41F080710B
:1003700040F8041C50F8041C8901FBD5016821F0E9
:1003800003010160016841F002010160016801F0B0
:100390000C010829FAD14EF60850CEF200004FF0B9
:1003A0000061016002B07047FFF754FF4EF6245021
:1003B000CEF20000016821F4E021016048F2000162
:1003C000C0F600010A6882F3088840F81C1C4868DF
:1003D000804700BFFEE70000E8030008000000209F
:0803E000600600005401000852
:04000005080000ED02
:00000001FF
