:020000040800F2
:1000000070060020B5010008BD010008BF0100080E
:10001000C1010008C3010008C5010008000000007C
:10002000000000000000000000000000C701000800
:10003000C901000800000000CB010008CD01000844
:10004000CF010008CF010008CF010008CF01000850
:10005000CF010008CF010008CF010008CF01000840
:10006000CF010008CF010008CF010008CF01000830
:10007000CF010008CF010008CF010008CF01000820
:10008000CF010008CF010008CF010008CF01000810
:10009000CF010008CF010008CF010008CF01000800
:1000A000CF010008CF010008CF010008CF010008F0
:1000B000CF010008CF010008CF010008CF010008E0
:1000C000CF010008CF010008CF010008CF010008D0
:1000D000CF010008CF010008CF010008CF010008C0
:1000E000CF010008CF010008CF01000800F002F89E
:1000F00000F050F814A696E8000CB244B344DA4578
:1001000001D100F047F8BAE80F000FA696E83000DA
:10011000A5EB040504EB0607AAEB0704A7F101070A
:100120004FEA15154FEA3414A4F10104AC4201D38F
:1001300000F030F813F0010F18BFFB1A43F0010371
:1001400000F001F8DBE7184780080000A008000075
:10015000103A24BF78C878C1FAD8520724BF30C8F3
:1001600030C144BF04680C60704700007047000055
:100170000023002400250026103A28BF78C1FBD8B0
:10018000520728BF30C148BF0B6070471FB51FBD65
:1001900010B510BD00F031F81146FFF7F7FF00F081
:1001A000B5FB00F04FF803B4FFF7F2FF03BC00F01B
:1001B00057F800000948804709480047FEE7FEE776
:1001C000FEE7FEE7FEE7FEE7FEE7FEE7FEE7FEE707
:1001D00004480549054A064B7047000035070008EA
:1001E000ED00000870000020700600207002002062
:1001F00070020020704770477047754600F02CF879
:10020000AE4605006946534620F00700854618B003
:1002100020B5FFF7DDFFBDE820404FF000064FF0AE
:1002200000074FF000084FF0000BAC46ACE8C009E7
:10023000ACE8C009ACE8C009ACE8C00921F007018E
:100240008D46704710B50446AFF300802046BDE8E8
:100250001040FFF7A8BF00000048704708000020CA
:1002600001491820ABBEFEE72600020070470000DF
:10027000B0B5044600F040F90E2000EAD41505F1AF
:10028000A00000F0B5F978B1E0B200F0B1F958B1D2
:1002900000F032F945F0A10000F0AAF920B10120E8
:1002A00000F0A0F8044600E0FF2400F06BF92046BF
:1002B000B0BD0000B0B50C46054600F01DF9A02009
:1002C00040EAD51000F0AE0000F092F9D8B1E8B2E3
:1002D00000F08EF9B8B1204600F08AF9044600F02B
:1002E00051F9002C08BFB0BD4FF08040002100F054
:1002F000B5FA41F2883400BF4FF0804000F0ACFA0C
:10030000A042F9D3B0BDBDE8B04000F03BB9000059
:10031000CA7802F00F0CD30644BF8B784CEA030C6A
:100320002DE9F04709880B0625D082465AF8144B70
:1003300000F1100E00254FF001094FF00F080027C3
:1003400006E000BF1E600137082F05F1040511D03B
:1003500009FA07F60E42F6D008FA05F324EA030379
:100360000CFA05F41C43282A5346EBD0482AEAD15C
:100370007346E7E70460B1F5807F38BFBDE8F087DA
:10038000436800F1100E00F1140900254FF4807A43
:100390004FF00F08002705E034600137082F05F102
:1003A000040512D00AFA07F404EA0106A642F4D1C1
:1003B00008FA05F6B3430CFA05F63343282A4E46ED
:1003C000EAD0482AE9D17646E6E74360BDE8F087FF
:1003D0008068084018BF01207047000041617047E5
:1003E000016170472DE9F04140F60044C4F2010478
:1003F000804620468021FFF7F3FF4FF08040002128
:1004000000F02CFA4FF0804000F026FA0328F9D3D0
:100410000027002520464021FFF7E2FF4FF08040F3
:10042000002100F01BFA00BF4FF0804000F014FAEA
:100430000328F9D320468021FFF7CAFF064600288B
:100440004FF080404FF0000118BF012600F006FA7F
:100450004FF0804000F000FA0228F9D320464021F6
:100460007F00FFF7BBFF4FF08040002100F0F6F95E
:100470004FF0804000F0F0F90528F9D33743072DFD
:1004800005F10105C6D320468021B8F1000F02D046
:10049000FFF7A4FF01E0FFF7A3FF4FF0804000212A
:1004A00000F0DCF94FF0804000F0D6F90328F9D3D2
:1004B00020464021FFF794FF4FF08040002100F0DC
:1004C000CDF900BF4FF0804000F0C6F90528F9D300
:1004D00020464021FFF782FF4FF08040002100F0CE
:1004E000BDF900BF4FF0804000F0B6F90528F9D300
:1004F000F8B2BDE8F081000010B540F60044C4F247
:10050000010420464021FFF76BFF4FF0804000219F
:1005100000F0A4F94FF0804000F09EF90328F9D3D1
:1005200020468021FFF75CFF4FF08040002100F063
:1005300095F900BF4FF0804000F08EF90328F9D301
:1005400020468021FFF74AFF4FF08040002100F055
:1005500085F900BF4FF0804000F07EF90328F9D301
:1005600020464021FFF73AFF4FF08040002100F085
:1005700075F900BF4FF0804000F06EF90328F9D301
:1005800010BD000010B540F60044C4F2010420463E
:100590008021FFF723FF4FF08040002100F05EF93B
:1005A0004FF0804000F058F90328F9D3204640214D
:1005B000FFF716FF4FF08040002100F04FF900BF19
:1005C0004FF0804000F048F90328F9D320468021FD
:1005D000FFF706FF4FF08040002100F03FF900BF19
:1005E0004FF0804000F038F90328F9D310BD000027
:1005F00070B540F6004405460026C4F2010400BF71
:1006000068B2B0F1FF3F05DD20468021FFF7E6FE2E
:1006100004E000BF20468021FFF7E2FE4FF080405B
:10062000002100F01BF900BF4FF0804000F014F9EA
:100630000328F9D320464021FFF7D2FE4FF0804037
:10064000002100F00BF900BF4FF0804000F004F9EA
:100650000528F9D320464021FFF7C0FE4FF0804027
:10066000002100F0FBF800BF4FF0804000F0F4F8EC
:100670000228F9D36D00072E06F10106C0D32046EB
:100680008021FFF7ADFE4FF08040002100F0E6F83A
:100690004FF0804000F0E0F80328F9D320464021D5
:1006A000FFF79EFE4FF08040002100F0D7F800BF1A
:1006B0004FF0804000F0D0F80328F9D32046802185
:1006C000FFF786FE05464FF08040002100F0C6F897
:1006D0004FF0804000F0C0F80228F9D320464021B6
:1006E000FFF77CFE4FF08040002100F0B7F800BF1C
:1006F0004FF0804000F0B0F80528F9D3B5FA85F046
:10070000400970BD002941F21C01C4F202010A68CF
:100710000CBF22EA0000104308607047002941F234
:100720001801C4F202010A680CBF22EA000010435B
:100730000860704782B041F20400C4F2020050F831
:10074000041C002241F0010140F8041C0168CFF6AE
:10075000FF021140016050F8041C4FF6FF72CFF603
:10076000F662114040F8041C50F8041C21F480216A
:1007700040F8041C016821F4FE0101604FF41F01E0
:10078000416000210191009150F8041C41F4803136
:1007900040F8041C50F8041C01F400310091019948
:1007A00001310191009919B90199B1F5A06FF1D109
:1007B00050F8041C890354BF0021012100910099C5
:1007C000012936D142F20001C4F202010A6842F066
:1007D00010020A600A6822F007020A600A6842F002
:1007E00002020A600168016001680160016841F469
:1007F00080610160016821F47C110160016841F4AD
:10080000E811016050F8041C41F0807140F8041CAC
:1008100050F8041C8901FBD5016821F00301016037
:10082000016841F002010160016801F00C01082932
:10083000FAD14EF60850CEF200004FF00061016090
:1008400002B070470288002918BF012122F001027E
:100850001144018070470000808C7047818470478C
:1008600040F6FF33B0F800C0C4F2000398420FDC3A
:10087000B0F1804F1ED040F20043C4F20003984212
:1008800018D040F60003C4F20003984212D016E0DC
:1008900040F60043C4F2000398420BD043F20043F9
:1008A000C4F20103984205D042F60043C4F20103AA
:1008B000984204D14B882CF0700243EA020C41F2BA
:1008C000004240F48063C4F20002934204D0CA881C
:1008D0002CF4407342EA030CA0F800C08A88830518
:1008E0008285A0F18042A2F5963243EA92220B88DB
:1008F000072A038507D8012303FA02F212F0E50F55
:100900001CBF097A018601218182704784B040F6BC
:10091000004408200121C4F20104FFF7FFFE01207A
:100920000121FFF7EFFEC020C1F20340CDF8020025
:100930000DF102012046FFF7EBFC4720CDF8060041
:100940004FF6FE70CDF80A000DF106014FF0804021
:10095000FFF786FF4FF080400121FFF773FF20462D
:100960004021FFF73DFD4FF080400021FFF776FF6B
:100970004FF08040FFF770FF0028F9D0204680211B
:10098000FFF72EFD4FF080400021FFF767FF00BF0B
:100990004FF08040FFF760FF0028F9D040F20004DC
:1009A00040F20201C2F20004C2F20001208809787C
:1009B000FFF780FC2088FFF75BFC40F26801C2F281
:1009C00000010870FEE70000E809000800000020B0
:1009D0000800000050010008F0090008080000208D
:1009E000680600007001000810005A0000000000B6
:04000005080000ED02
:00000001FF
