:020000040800F2
:100000006806002099010008A1010008A30100086A
:10001000A5010008A7010008A901000800000000D0
:10002000000000000000000000000000AB0100081C
:10003000AD01000800000000AF010008B101000898
:10004000B3010008B3010008B3010008B3010008C0
:10005000B3010008B3010008B3010008B3010008B0
:10006000B3010008B3010008B3010008B3010008A0
:10007000B3010008B3010008B3010008B301000890
:10008000B3010008B3010008B3010008B301000880
:10009000B3010008B3010008B3010008B301000870
:1000A000B3010008B3010008B3010008B301000860
:1000B000B3010008B3010008B3010008B301000850
:1000C000B3010008B3010008B3010008B301000840
:1000D000B3010008B3010008B3010008B301000830
:1000E000B3010008B3010008B301000800F002F8F2
:1000F00000F042F814A696E8000CB244B344DA4586
:1001000001D100F039F8BAE80F000FA696E83000E8
:10011000A5EB040504EB0607AAEB0704A7F101070A
:100120004FEA15154FEA3414A4F10104AC4201D38F
:1001300000F022F813F0010F18BFFB1A43F001037F
:1001400000F001F8DBE718475C0800006C080000CD
:10015000704700000023002400250026103A28BF25
:1001600078C1FBD8520728BF30C148BF0B60704729
:100170001FB51FBD10B510BD00F031F81146FFF7D7
:10018000F7FF00F0E3FB00F04FF803B4FFF7F2FFD6
:1001900003BC00F057F800000948804709480047B1
:1001A000FEE7FEE7FEE7FEE7FEE7FEE7FEE7FEE727
:1001B000FEE7FEE704480549054A064B7047000084
:1001C0003D070008ED0000086800002068060020D8
:1001D000680200206802002070477047704775462B
:1001E00000F02CF8AE4605006946534620F00700A3
:1001F000854618B020B5FFF7DDFFBDE820404FF081
:1002000000064FF000074FF000084FF0000BAC461F
:10021000ACE8C009ACE8C009ACE8C009ACE8C0096A
:1002200021F007018D46704710B50446AFF30080FA
:100230002046BDE81040FFF7A8BF00000048704707
:100240000000002001491820ABBEFEE72600020096
:100250007047000080B584B0B020ADF80C000420D9
:100260008DF80F00032000908DF80E0040F600007E
:10027000C4F20100019003A9029100F00FF8009A66
:10028000019802994023ADF80C3010238DF80F30FF
:100290008DF80E2000F002F804B080BD88B0079001
:1002A0000691002005900490039002900190009028
:1002B0000698C07800F00F0005900698C078C00638
:1002C000002806D5FFE70698817805980843059031
:1002D000FFE70698007800284BD0FFE707980068F2
:1002E000019000200390FFE7039807283DD8FFE71F
:1002F00003990120884002900698008802990840DE
:1003000004900498029988422AD1FFE7039880005C
:10031000029002990F20884000900099019888432C
:1003200001900598029900FA01F1019808430190A3
:100330000698C078282806D1FFE703990120884055
:10034000079948610BE00698C078482806D1FFE776
:1003500003990120884007990861FFE7FFE7FFE75D
:10036000FFE7039801300390BEE701980799086002
:10037000FFE706980088B0F5807F50DBFFE707981D
:100380004068019000200390FFE70398072842D8B7
:10039000FFE7039800F108010120884002900698C9
:1003A00000880299084004900498029988422DD14F
:1003B000FFE703988000029002990F208840009088
:1003C00000990198884301900598029900FA01F17B
:1003D0000198084301900698C078282808D1FFE7C3
:1003E000039800F108010120884007994861FFE760
:1003F0000698C078482808D1FFE7039800F1080163
:100400000120884007990861FFE7FFE7FFE70398AD
:1004100001300390B9E7019807994860FFE708B0F9
:100420007047000082B00190ADF8021000208DF8F6
:10043000010001988068BDF80210084204D0FFE76F
:1004400001208DF8010003E000208DF80100FFE796
:100450009DF8010002B0704782B00190ADF8021023
:100460008DF801209DF8010028B1FFE7BDF80200DA
:100470000199086104E0BDF8020001994861FFE7B5
:1004800002B0704782B001908DF803109DF8030010
:1004900048B1FFE7019A41F21C01C4F20201086869
:1004A0001043086008E0019A41F21C01C4F2020105
:1004B000086890430860FFE702B0704782B001907F
:1004C0008DF803109DF8030048B1FFE7019A41F24F
:1004D0001801C4F2020108681043086008E0019A9C
:1004E00041F21801C4F20201086890430860FFE776
:1004F00002B0704780B582B0042001210191FFF75E
:10050000DDFF01990846FFF7BDFF02B080BD000086
:1005100080B582B040F60000C4F2010000902021B6
:1005200000220192FFF798FF009810210122FFF7A7
:1005300093FF0098019A8021FFF78EFF0098019A9F
:100540004021FFF789FF02B080BD000080B582B076
:1005500000208DF807008DF80600FFE740F6000048
:10056000C4F201001021FFF75DFF08B1FFE7F5E7D6
:10057000FFE740F60000C4F201002021FFF752FF20
:1005800008B9FFE7F5E700200090FFE7009807288B
:100590003ADCFFE740F60000C4F201002021FFF73B
:1005A00041FF08B3FFE7FFE740F60000C4F2010097
:1005B0002021FFF737FF50B1FFE740F60000C4F2FB
:1005C00001008021FFF72EFF8DF80600ECE79DF873
:1005D000070040008DF807009DF806109DF8070001
:1005E00008438DF80700FFE7FFE740F60000C4F27C
:1005F00001002021FFF716FF08B9FFE7F5E7FFE745
:10060000009801300090C1E79DF8070002B080BD5E
:1006100080B500F001F880BD84B000200390029006
:1006200041F20001C4F20201086840F48030086021
:10063000FFE741F20000C4F20200006800F400305D
:100640000290039801300390FFE702990020019087
:1006500039B9FFE70398B0F5A06018BF01200190F9
:10066000FFE70198C0070028E3D1FFE741F200004F
:10067000C4F2020000688003002803D5FFE70120D0
:10068000029002E000200290FFE70298012851D179
:10069000FFE742F20001C4F20201086840F01000D6
:1006A0000860086820F007000860086840F0020051
:1006B000086041F20401C4F2020100910868086078
:1006C00008680860086840F480600860086820F4E2
:1006D0007C100860086840F4E810086041F20001EE
:1006E000C4F20201086840F080700860FFE741F240
:1006F0000000C4F2020000688001002801D4FFE776
:10070000F5E741F20401C4F20201086820F0030099
:100710000860086840F002000860FFE741F204004A
:10072000C4F20200006800F00C00082801D0FFE7C6
:10073000F4E700E0FFE704B07047000080B541F245
:100740000002C4F20202106840F00100106041F2A1
:100750000401C4F2020108680023CFF6FF03184029
:10076000086010684FF6FF73CFF6F663184010600C
:10077000106820F480201060086820F4FE000860F3
:1007800041F20801C4F202014FF41F000860FFF7B4
:100790003FFF4EF60851CEF200014FF000600860B6
:1007A00080BD000080B584B00020ADF80C0041F69B
:1007B0001F41ADF806104FF6FE71ADF80A10ADF806
:1007C00008004FF0804000900DF1060100F01CF889
:1007D0000098012100F002F804B080BD82B00190C1
:1007E0008DF803109DF8030030B1FFE701990888E8
:1007F00040F00100088005E00199088820F0010020
:100800000880FFE702B0704783B00290019100209A
:10081000ADF8020002980088ADF80200029842F696
:100820000041C4F20101884225D0FFE7029843F25B
:100830000041C4F2010188421DD0FFE70298B0F1E7
:10084000804F18D0FFE7029840F20041C4F2000147
:10085000884210D0FFE7029840F60001C4F2000180
:10086000884208D0FFE7029840F60041C4F2000138
:1008700088420ED1FFE7BDF8020020F07000ADF80D
:10088000020001984188BDF802000843ADF802005B
:10089000FFE7029841F20001C4F20001884216D03D
:1008A000FFE7029841F20041C4F2000188420ED0F5
:1008B000FFE7BDF8020020F44070ADF80200019897
:1008C000C188BDF802000843ADF80200FFE7BDF89B
:1008D0000200029908800198808802998885019811
:1008E000008802990885029842F60041C4F201018D
:1008F000884220D0FFE7029843F20041C4F2010190
:10090000884218D0FFE7029844F20001C4F20101C6
:10091000884210D0FFE7029844F20041C4F201017E
:10092000884208D0FFE7029844F60001C4F20101B2
:10093000884205D1FFE70198007A02990886FFE70F
:1009400002990120888203B07047000080B582B010
:1009500000200190FFF7CEFDFFF77CFCFFF722FFA0
:10096000FFF7D6FDFFE700200090FFE7009803287F
:1009700017DCFFE740F60000C4F201001021FFF78A
:1009800051FD48B9FFE7FFF7E1FD009A40F2600131
:10099000C2F200018854FFE7FFE7009801300090A1
:1009A000E4E7E0E7B4090008000000206806000062
:0409B00054010008E6
:04000005080000ED02
:00000001FF
