:020000040800F2
:100000006806002099010008A1010008A30100086A
:10001000A5010008A7010008A901000800000000D0
:10002000000000000000000000000000AB0100081C
:10003000AD01000800000000AF010008B101000898
:10004000B3010008B3010008B3010008B3010008C0
:10005000B3010008B3010008B3010008B3010008B0
:10006000B3010008B3010008B3010008B3010008A0
:10007000B3010008B3010008B3010008B301000890
:10008000B3010008B3010008B3010008B301000880
:10009000B3010008B3010008B3010008B301000870
:1000A000B3010008B3010008B3010008B301000860
:1000B000B3010008B3010008B3010008B301000850
:1000C000B3010008B3010008B3010008B301000840
:1000D000B3010008B3010008B3010008B301000830
:1000E000B3010008B3010008B301000800F002F8F2
:1000F00000F042F814A696E8000CB244B344DA4586
:1001000001D100F039F8BAE80F000FA696E83000E8
:10011000A5EB040504EB0607AAEB0704A7F101070A
:100120004FEA15154FEA3414A4F10104AC4201D38F
:1001300000F022F813F0010F18BFFB1A43F001037F
:1001400000F001F8DBE718473C0500004C05000013
:10015000704700000023002400250026103A28BF25
:1001600078C1FBD8520728BF30C148BF0B60704729
:100170001FB51FBD10B510BD00F031F81146FFF7D7
:10018000F7FF00F01BFA00F04FF803B4FFF7F2FF9F
:1001900003BC00F057F800000948804709480047B1
:1001A000FEE7FEE7FEE7FEE7FEE7FEE7FEE7FEE727
:1001B000FEE7FEE704480549054A064B7047000084
:1001C000B9030008ED000008680000206806002060
:1001D000680200206802002070477047704775462B
:1001E00000F02CF8AE4605006946534620F00700A3
:1001F000854618B020B5FFF7DDFFBDE820404FF081
:1002000000064FF000074FF000084FF0000BAC461F
:10021000ACE8C009ACE8C009ACE8C009ACE8C0096A
:1002200021F007018D46704710B50446AFF30080FA
:100230002046BDE81040FFF7A8BF00000048704707
:100240000000002001491820ABBEFEE72600020096
:1002500070470000CA7802F00F0CD30644BF8B78B9
:100260004CEA030C2DE9F04709880B0625D082469D
:100270005AF8144B00F1100E00254FF001094FF011
:100280000F08002706E000BF1E600137082F05F1A8
:10029000040511D009FA07F60E42F6D008FA05F364
:1002A00024EA03030CFA05F41C43282A5346EBD036
:1002B000482AEAD17346E7E70460B1F5807F38BF8A
:1002C000BDE8F087436800F1100E00F11409002525
:1002D0004FF4807A4FF00F08002705E034600137B3
:1002E000082F05F1040512D00AFA07F404EA010602
:1002F000A642F4D108FA05F6B3430CFA05F63343E7
:10030000282A4E46EAD0482AE9D17646E6E74360F5
:10031000BDE8F087002941F21801C4F202010A6821
:100320000CBF22EA000010430860704710B541F28C
:100330000404C4F20204226802F00C02082A41F20A
:100340000022C0F27A0212D12368D4F800C0C3F3AD
:10035000834E5FEACC330EF1020C02D523689B0377
:1003600003D540F60012C0F23D020CFB02F202601F
:10037000226840F27263C2F30312C0F600039A5C73
:100380000168D14041602268C2F302229A5C21FADE
:1003900002F282602268C2F3C2229A5C40F26E636B
:1003A000D140C1602268C0F60003C2F381329A5C7A
:1003B000B1FBF2F1016110BD82B041F20400C4F260
:1003C000020050F8041C002241F0010140F8041C16
:1003D0000168CFF6FF021140016050F8041C4FF68F
:1003E000FF72CFF6F662114040F8041C50F8041C6E
:1003F00021F4802140F8041C016821F4FE01016011
:100400004FF41F01416000210191009150F8041C3C
:1004100041F4803140F8041C50F8041C01F4003110
:100420000091019901310191009919B90199B1F532
:10043000A06FF1D150F8041C890354BF00210121A1
:1004400000910099012936D142F20001C4F2020163
:100450000A6842F010020A600A6822F007020A6085
:100460000A6842F002020A600168016001680160E6
:10047000016841F480610160016821F47C11016030
:10048000016841F4E811016050F8041C41F08071EA
:1004900040F8041C50F8041C8901FBD5016821F0C8
:1004A00003010160016841F002010160016801F08F
:1004B0000C010829FAD14EF60850CEF200004FF098
:1004C0000061016002B070478289002918BF0121D4
:1004D00022F4005242EA413181817047008808408D
:1004E00018BF01207047000070B586B00446008A2E
:1004F0000D46C98820F4405008432082A0894EF65A
:10050000F3110840A9882A896B89084310431843CE
:10051000A081A08AA98920F44070084301AEA0827E
:100520003046FFF703FF43F6000106F10800C4F26E
:1005300001018C4208BF06F10C0000681922B4F9D1
:100540000C1050432A680123B1F1FF3FC8BF0223BA
:1005500002FA03F1B0FBF1F048F21F51C5F2EB11C2
:10056000A0FB01235A096FF0630302FB0300B4F9F7
:100570000C300326B3F1FF3FC8BF042600FA06F093
:1005800000F13200A0FB01014FF00700C8BF0F20AF
:1005900000EA511040EA0210208106B070BD000050
:1005A000028A002918BF012122F4804242EA8131E7
:1005B0000182704780886FF35F20704786B043F6F2
:1005C000000444F204000121C4F20104FFF7A2FE7A
:1005D00040F20020C1F60300A4F5405505AE059099
:1005E00028463146FFF736FE40F20040C0F2034095
:1005F000059028463146FFF72DFE4FF496400190B6
:100600000C20CDF80E000020ADF80800CDF80A004F
:1006100001A92046FFF768FF20460121FFF754FF9C
:1006200020460121FFF7BCFF40F26005C2F2000541
:1006300020462021FFF752FF0028F9D02046FFF77F
:10064000B9FFC0B25028F3D1002600BF20462021B8
:10065000FFF744FF0028F9D02046FFF7ABFFA8556D
:100660000136042EF2D12046FFF7A4FFE0E7020492
:10067000060800000000010203040102030406074B
:100680000809000094060008000000206806000029
:040690005401000809
:04000005080000ED02
:00000001FF
