:020000040800F2
:108000006006002099810008A1810008A381000872
:10801000A5810008A7810008A981000800000000D0
:10802000000000000000000000000000AB8100081C
:10803000AD81000800000000AF810008B181000898
:10804000B3810008B3810008B3810008B381000840
:10805000B3810008B3810008B3810008B381000830
:10806000B3810008B3810008B3810008B381000820
:10807000B3810008B3810008B3810008B381000810
:10808000B3810008B3810008B3810008B381000800
:10809000B3810008B3810008B3810008B3810008F0
:1080A000B3810008B3810008B3810008B3810008E0
:1080B000B3810008B3810008B3810008B3810008D0
:1080C000B3810008B3810008B3810008B3810008C0
:1080D000B3810008B3810008B3810008B3810008B0
:1080E000B3810008B3810008B381000800F002F8F2
:1080F00000F042F814A696E8000CB244B344DA4506
:1081000001D100F039F8BAE80F000FA696E8300068
:10811000A5EB040504EB0607AAEB0704A7F101078A
:108120004FEA15154FEA3414A4F10104AC4201D30F
:1081300000F022F813F0010F18BFFB1A43F00103FF
:1081400000F001F8DBE718477C0400008C04000015
:10815000704700000023002400250026103A28BFA5
:1081600078C1FBD8520728BF30C148BF0B607047A9
:108170001FB51FBD10B510BD00F031F81146FFF757
:10818000F7FF00F0CFF900F04FF803B4FFF7F2FF6C
:1081900003BC00F057F80000094880470948004731
:1081A000FEE7FEE7FEE7FEE7FEE7FEE7FEE7FEE7A7
:1081B000FEE7FEE704480549054A064B7047000004
:1081C0004D830008ED80000860000020600600205C
:1081D00060020020600200207047704770477546BB
:1081E00000F02CF8AE4605006946534620F0070023
:1081F000854618B020B5FFF7DDFFBDE820404FF001
:1082000000064FF000074FF000084FF0000BAC469F
:10821000ACE8C009ACE8C009ACE8C009ACE8C009EA
:1082200021F007018D46704710B50446AFF300807A
:108230002046BDE81040FFF7A8BF00000048704787
:108240000000002001491820ABBEFEE72600020016
:1082500070470000CA7802F00F0CD30644BF8B7839
:108260004CEA030C2DE9F04709880B0625D082461D
:108270005AF8144B00F1100E00254FF001094FF091
:108280000F08002706E000BF1E600137082F05F128
:10829000040511D009FA07F60E42F6D008FA05F3E4
:1082A00024EA03030CFA05F41C43282A5346EBD0B6
:1082B000482AEAD17346E7E70460B1F5807F38BF0A
:1082C000BDE8F087436800F1100E00F114090025A5
:1082D0004FF4807A4FF00F08002705E03460013733
:1082E000082F05F1040512D00AFA07F404EA010682
:1082F000A642F4D108FA05F6B3430CFA05F6334367
:10830000282A4E46EAD0482AE9D17646E6E7436075
:10831000BDE8F0874161704701617047002941F273
:108320001C01C4F202010A680CBF22EA00001043DB
:1083300008607047002941F21801C4F202010A687E
:108340000CBF22EA000010430860704782B041F27F
:108350000400C4F2020050F8041C002241F00101A4
:1083600040F8041C0168CFF6FF021140016050F88C
:10837000041C4FF6FF72CFF6F662114040F8041C61
:1083800050F8041C21F4802140F8041C016821F4F9
:10839000FE0101604FF41F01416000210191009135
:1083A00050F8041C41F4803140F8041C50F8041CBF
:1083B00001F400310091019901310191009919B93D
:1083C0000199B1F5A06FF1D150F8041C890354BF95
:1083D0000021012100910099012936D142F20001CA
:1083E000C4F202010A6842F010020A600A6822F030
:1083F00007020A600A6842F002020A60016801602E
:1084000001680160016841F480610160016821F444
:108410007C110160016841F4E811016050F8041C0E
:1084200041F0807140F8041C50F8041C8901FBD510
:10843000016821F003010160016841F0020101605F
:10844000016801F00C010829FAD14EF60850CEF26D
:1084500000004FF00061016002B0704702880029FF
:1084600018BF012122F00102114401807047000071
:10847000808C70478184704740F6FF33B0F800C0AD
:10848000C4F2000398420FDCB0F1804F1ED040F2DE
:108490000043C4F20003984218D040F60003C4F22F
:1084A0000003984212D016E040F60043C4F20003E5
:1084B00098420BD043F20043C4F20103984205D026
:1084C00042F60043C4F20103984204D14B882CF0D9
:1084D000700243EA020C41F2004240F48063C4F2AD
:1084E0000002934204D0CA882CF4407342EA030C81
:1084F000A0F800C08A8883058285A0F18042A2F599
:10850000963243EA92220B88072A038507D8012373
:1085100003FA02F212F0E50F1CBF097A018601216D
:108520008182704784B041F2000410200121C4F21E
:108530000104FFF7FFFE01200121FFF7EFFE42F2E9
:108540000000C1F20300CDF802000DF10201204647
:10855000FFF780FE41F61F40CDF806004FF6FE7093
:10856000CDF80A000DF106014FF08040FFF784FFBF
:108570004FF080400121FFF771FF44F6206500BFF6
:1085800020464FF40051FFF7C7FE4FF08040002116
:10859000FFF770FF4FF08040FFF76AFFA842F9D362
:1085A00020464FF40051FFF7B5FE4FF08040002108
:1085B000FFF760FF4FF08040FFF75AFFA842F9D362
:1085C000DEE70000D48500080000002060060000FF
:0485D00054810008CA
:04000005080080ED82
:00000001FF
