:020000040800F2
:1000000068060020B5010008BD010008BF01000816
:10001000C1010008C3010008C5010008000000007C
:10002000000000000000000000000000C701000800
:10003000C901000800000000CB010008CD01000844
:10004000CF010008CF010008CF010008CF01000850
:10005000CF010008CF010008CF010008CF01000840
:10006000CF010008CF010008CF010008CF01000830
:10007000CF010008CF010008CF010008CF01000820
:10008000CF010008CF010008CF010008CF01000810
:10009000CF010008CF010008CF010008CF01000800
:1000A000CF010008CF010008CF010008CF010008F0
:1000B000CF010008CF010008CF010008CF010008E0
:1000C000CF010008CF010008CF010008CF010008D0
:1000D000CF010008CF010008CF010008CF010008C0
:1000E000CF010008CF010008CF01000800F002F89E
:1000F00000F050F814A696E8000CB244B344DA4578
:1001000001D100F047F8BAE80F000FA696E83000DA
:10011000A5EB040504EB0607AAEB0704A7F101070A
:100120004FEA15154FEA3414A4F10104AC4201D38F
:1001300000F030F813F0010F18BFFB1A43F0010371
:1001400000F001F8DBE71847F0050000100600009A
:10015000103A24BF78C878C1FAD8520724BF30C8F3
:1001600030C144BF04680C60704700007047000055
:100170000023002400250026103A28BF78C1FBD8B0
:10018000520728BF30C148BF0B6070471FB51FBD65
:1001900010B510BD00F031F81146FFF7F7FF00F081
:1001A00075FA00F04FF803B4FFF7F2FF03BC00F05C
:1001B00057F800000948804709480047FEE7FEE776
:1001C000FEE7FEE7FEE7FEE7FEE7FEE7FEE7FEE707
:1001D00004480549054A064B704700007D050008A4
:1001E000ED0000086800002068060020680200207A
:1001F00068020020704770477047754600F02CF881
:10020000AE4605006946534620F00700854618B003
:1002100020B5FFF7DDFFBDE820404FF000064FF0AE
:1002200000074FF000084FF0000BAC46ACE8C009E7
:10023000ACE8C009ACE8C009ACE8C00921F007018E
:100240008D46704710B50446AFF300802046BDE8E8
:100250001040FFF7A8BF00000048704708000020CA
:1002600001491820ABBEFEE72600020070470000DF
:1002700010B502684FF0000C22F002020260026822
:1002800042F0010202604FF6FF7200BFD0F804E0B6
:10029000013A4CF100045FEACE7301D1002CF5D194
:1002A0004268D2074FF0000252D08B790468012BCC
:1002B00024F0800408BF80340460CB790468012BEB
:1002C00024F0400408BF403404600B7A0468012B1A
:1002D00024F0200408BF203404604B7A0468012B0A
:1002E00024F0100408BF103404608B7A0468012BDA
:1002F00024F0080408BF08340460CB7A0468012B9A
:1003000024F0040408BF04340460CC7891F802C0DF
:100310000B79240691F805E044EA8C74098844EAD4
:10032000034343EA0E5301391943C161016821F0C7
:10033000010101604FF6FF714468013942F1000389
:10034000E40718BF002BF7D14068012121EA000221
:10035000104610BD0246806840010ED4906800012E
:100360004FF001000CD4936813F0805380EA1373AC
:100370004FF0020008BF042003E00023002000E04B
:100380000023002B18BF7047B0B502EB0012D2F863
:10039000803102F5C07E03F00103C2F8803191F88C
:1003A00008C0BCF1000F03D04B684CEAC30C02E05C
:1003B0000B684FEA435C4B7A8C7ADEF8005043EAD4
:1003C0000C032B43CEF8003004F00F038B72D2F8ED
:1003D000845125F00F05C2F88451D2F884512B4383
:1003E000C2F88431D1F80B30C2F88831D1F80F103F
:1003F000C2F88C11DEF8001041F00101CEF80010B7
:10040000BDE8B04070470000022906D849B21CA2DE
:1004100052F821108068084000E00020FF21C0F65B
:100420000001884210DD4FF6FF71C1F200018842E1
:1004300017DC40F20011C0F6000188421DD040F2E6
:100440000031C0F6000114E0002804BF022070470C
:100450000121C0F2004188420FD00321C0F20041C7
:1004600007E00021C1F20101884206D00021C1F25B
:100470000301884204BF012070470020704700BF7D
:10048000030000040003000800000310CA7802F013
:100490000F0CD30644BF8B784CEA030C2DE9F047D0
:1004A00009880B0625D082465AF8144B00F1100E2D
:1004B00000254FF001094FF00F08002706E000BFAC
:1004C0001E600137082F05F1040511D009FA07F65F
:1004D0000E42F6D008FA05F324EA03030CFA05F4F9
:1004E0001C43282A5346EBD0482AEAD17346E7E753
:1004F0000460B1F5807F38BFBDE8F087436800F144
:10050000100E00F1140900254FF4807A4FF00F0807
:10051000002705E034600137082F05F1040512D0EB
:100520000AFA07F404EA0106A642F4D108FA05F62D
:10053000B3430CFA05F63343282A4E46EAD0482A3C
:10054000E9D17646E6E74360BDE8F087002941F24D
:100550001C01C4F202010A680CBF22EA0000104329
:1005600008607047002941F21801C4F202010A68CC
:100570000CBF22EA000010430860704782B041F2CD
:100580000400C4F2020050F8041C002241F00101F2
:1005900040F8041C0168CFF6FF021140016050F8DA
:1005A000041C4FF6FF72CFF6F662114040F8041CAF
:1005B00050F8041C21F4802140F8041C016821F447
:1005C000FE0101604FF41F01416000210191009183
:1005D00050F8041C41F4803140F8041C50F8041C0D
:1005E00001F400310091019901310191009919B98B
:1005F0000199B1F5A06FF1D150F8041C890354BFE3
:100600000021012100910099012936D142F2000117
:10061000C4F202010A6842F010020A600A6822F07D
:1006200007020A600A6842F002020A60016801607B
:1006300001680160016841F480610160016821F492
:100640007C110160016841F4E811016050F8041C5C
:1006500041F0807140F8041C50F8041C8901FBD55E
:10066000016821F003010160016841F002010160AD
:10067000016801F00C010829FAD14EF60850CEF2BB
:1006800000004FF00061016002B0704786B046F292
:10069000004404200121C4F20004FFF763FF40F688
:1006A0000000C0F2034004F5244501AE0190284645
:1006B0003146FFF7EBFE41F20000C1F60300019066
:1006C00028463146FFF7E2FE4FF000700121FFF7A8
:1006D0003DFF0020C0F20570CDF8060040F200108A
:1006E000C0F20100CDF80A0006200025ADF8040094
:1006F00001A92046ADF80E50FFF7BAFD40F2000107
:10070000C2F2000140F2231006C9019008208DF8C2
:100710000E00CDF80F1001A92046ADF80C50CDF811
:100720001320FFF717FE054620462946FFF76CFE0B
:100730000128F9D1FEE7000058070008000000205A
:1007400008000000500100086007000808000020B1
:10075000600600007001000810203040506070807A
:04000005080000ED02
:00000001FF
