:020000040800F2
:100000006806002099010008A1010008A30100086A
:10001000A5010008A7010008A901000800000000D0
:10002000000000000000000000000000AB0100081C
:10003000AD01000800000000AF010008B101000898
:10004000B3010008B3010008B3010008B3010008C0
:10005000B3010008B3010008B3010008B3010008B0
:10006000B3010008B3010008B3010008B3010008A0
:10007000B3010008B3010008B3010008B301000890
:10008000B3010008B3010008B3010008B301000880
:10009000B3010008B3010008B3010008B301000870
:1000A000B3010008B3010008B3010008B301000860
:1000B000B3010008B3010008B3010008B301000850
:1000C000B3010008B3010008B3010008B301000840
:1000D000B3010008B3010008B3010008B301000830
:1000E000B3010008B3010008B301000800F002F8F2
:1000F00000F042F814A696E8000CB244B344DA4586
:1001000001D100F039F8BAE80F000FA696E83000E8
:10011000A5EB040504EB0607AAEB0704A7F101070A
:100120004FEA15154FEA3414A4F10104AC4201D38F
:1001300000F022F813F0010F18BFFB1A43F001037F
:1001400000F001F8DBE71847D40C0000E40C0000D5
:10015000704700000023002400250026103A28BF25
:1001600078C1FBD8520728BF30C148BF0B60704729
:100170001FB51FBD10B510BD00F031F81146FFF7D7
:10018000F7FF00F0F7FD00F04FF803B4FFF7F2FFC0
:1001900003BC00F057F800000948804709480047B1
:1001A000FEE7FEE7FEE7FEE7FEE7FEE7FEE7FEE727
:1001B000FEE7FEE704480549054A064B7047000084
:1001C00009090008ED00000868000020680600200A
:1001D000680200206802002070477047704775462B
:1001E00000F02CF8AE4605006946534620F00700A3
:1001F000854618B020B5FFF7DDFFBDE820404FF081
:1002000000064FF000074FF000084FF0000BAC461F
:10021000ACE8C009ACE8C009ACE8C009ACE8C0096A
:1002200021F007018D46704710B50446AFF30080FA
:100230002046BDE81040FFF7A8BF00000048704707
:100240000000002001491820ABBEFEE72600020096
:100250007047000082B001908DF803109DF80300F4
:1002600030B1FFE70199086840F00100086006E03E
:10027000019908684FF6FE7210400860FFE702B06F
:100280007047000080B58EB043F20C00C4F201004C
:10029000039040F26000C2F200000490002005903C
:1002A000012102910691079009900A900B904FF45A
:1002B00080510C910D901C20C4F20200019003A902
:1002C00000F00EF801980299FFF7C4FF029A43F27A
:1002D0000000C4F20100114600F010FA0EB080BD1B
:1002E00080B583B0029001910020009002980068D0
:1002F0000090009847F6F071884300900199D1F87A
:1003000020E08868D1F810C04B698A6940EA0E0085
:1003100040EA0C0018431043CA6910434A6A10436C
:10032000896A014300980843009000980299086088
:100330000198C06802994860019800680299886035
:10034000019840680299C86003B080BD80B586B04E
:100350004020ADF81400182001908DF817000320FC
:1003600002908DF8160040F60000C4F201000390E0
:1003700005A9049100F02CF8029A03980499A0238F
:10038000ADF81430042300938DF817308DF8162043
:1003900000F01EF8009B029A039804994FF0100C8D
:1003A000ADF814C08DF817308DF8162000F010F855
:1003B000019B029A039804994FF0010CADF814C008
:1003C0008DF817308DF8162000F002F806B080BDC9
:1003D00088B0079006910020059004900390029049
:1003E000019000900698C07800F00F0005900698E4
:1003F000C078C006002806D5FFE7069881780598E2
:1004000008430590FFE70698007800284BD0FFE7E7
:1004100007980068019000200390FFE703980728E1
:100420003DD8FFE703990120884002900698008894
:100430000299084004900498029988422AD1FFE763
:1004400003988000029002990F2088400090009944
:100450000198884301900598029900FA01F10198EA
:10046000084301900698C078282806D1FFE7039931
:1004700001208840079948610BE00698C078482819
:1004800006D1FFE703990120884007990861FFE73B
:10049000FFE7FFE7FFE7039801300390BEE701980D
:1004A00007990860FFE706980088B0F5807F50DB69
:1004B000FFE707984068019000200390FFE703984A
:1004C000072842D8FFE7039800F10801012088407F
:1004D00002900698008802990840049004980299B6
:1004E00088422DD1FFE703988000029002990F20E7
:1004F00088400090009901988843019005980299DE
:1005000000FA01F10198084301900698C078282864
:1005100008D1FFE7039800F10801012088400799FE
:100520004861FFE70698C078482808D1FFE703989C
:1005300000F108010120884007990861FFE7FFE703
:10054000FFE7039801300390B9E7019807994860E5
:10055000FFE708B07047000082B00190ADF80210CC
:1005600000208DF8010001988068BDF80210084253
:1005700004D0FFE701208DF8010003E000208DF892
:100580000100FFE79DF8010002B0704782B00190C2
:100590008DF803109DF8030048B1FFE7019A41F27E
:1005A0001401C4F2020108681043086008E0019ACF
:1005B00041F21401C4F20201086890430860FFE7A9
:1005C00002B0704782B001908DF803109DF80300CF
:1005D00048B1FFE7019A41F21C01C4F20201086828
:1005E0001043086008E0019A41F21C01C4F20201C4
:1005F000086890430860FFE702B0704782B001903E
:100600008DF803109DF8030048B1FFE7019A41F20D
:100610001801C4F2020108681043086008E0019A5A
:1006200041F21801C4F20201086890430860FFE734
:1006300002B0704780B582B041F2050001210191FE
:10064000FFF7DCFF01990320FFF7BCFF0199084683
:10065000FFF79CFF02B080BD80B5FFE743F20000CA
:10066000C4F20100012100F063F808B9FFE7F5E7E3
:1006700043F20000C4F2010000F076F8C0B280BD81
:1006800082B001908DF803109DF8030030B1FFE7B0
:100690000199088840F04000088005E00199088829
:1006A00020F040000880FFE702B0704780B586B0B8
:1006B0000020ADF80800ADF80600ADF80C00ADF86C
:1006C0000E00ADF814000721ADF81610ADF80A00C1
:1006D0001820ADF812004FF40070ADF8100043F28E
:1006E0000000C4F2010000900DF1060100F042F894
:1006F00000980121FFF7C4FF06B080BD82B00190D1
:10070000ADF802108DF801209DF8010038B1FFE727
:10071000BDF80220019988881043888006E0BDF862
:1007200002200199888890438880FFE702B07047D3
:1007300082B00190ADF8021000208DF80100019800
:100740000089BDF802100840000420B1FFE7012035
:100750008DF8010003E000208DF80100FFE79DF80F
:10076000010002B07047000081B0009000988089BD
:1007700001B0704783B0029001910020ADF80200F3
:1007800002980088ADF80200BDF8020000F4415064
:10079000ADF80200019908884A8810438A881043FE
:1007A000CA8810430A8910434A8910438A89104332
:1007B000C9890143BDF802000843ADF80200BDF845
:1007C0000200029908800299888B20F400608883D7
:1007D0000198008A0299088203B0704780B500F042
:1007E00001F880BD84B000200390029041F2000126
:1007F000C4F20201086840F480300860FFE741F26B
:100800000000C4F20200006800F400300290039877
:1008100001300390FFE702990020019039B9FFE70A
:100820000398B0F5A06018BF01200190FFE7019880
:10083000C0070028E3D1FFE741F20000C4F2020044
:1008400000688003002803D5FFE70120029002E042
:1008500000200290FFE70298012851D1FFE742F201
:100860000001C4F20201086840F010000860086846
:1008700020F007000860086840F00200086041F2BC
:100880000401C4F202010091086808600868086069
:10089000086840F480600860086820F47C100860F4
:1008A000086840F4E810086041F20001C4F2020157
:1008B000086840F080700860FFE741F20000C4F271
:1008C000020000688001002801D4FFE7F5E741F24B
:1008D0000401C4F20201086820F0030008600868FF
:1008E00040F002000860FFE741F20400C4F2020099
:1008F000006800F00C00082801D0FFE7F4E700E0F2
:10090000FFE704B07047000080B541F20002C4F276
:100910000202106840F00100106041F20401C4F2CC
:10092000020108680023CFF6FF0318400860106832
:100930004FF6FF73CFF6F66318401060106820F48E
:1009400080201060086820F4FE00086041F2080171
:10095000C4F202014FF41F000860FFF73FFF4EF69C
:100960000851CEF200014FF00060086080BD000029
:1009700080B58AB000200090ADF824004721ADF882
:100980001E1044F61F61ADF82210ADF820004FF0A4
:10099000804001900DF11E0100F01EF900990198B0
:1009A0006022ADF80E2001220292ADF810204FF423
:1009B0007A72ADF81420ADF816100DF10E0100F0AA
:1009C00027F80198082100F0D5F80198029900F065
:1009D00003F80AB080BD000082B001908DF80310CA
:1009E0009DF8030030B1FFE70199088840F001004D
:1009F000088005E00199088820F001000880FFE7E1
:100A000002B0704781B000900098808C01B07047B0
:100A100084B0039002910020ADF80600ADF8040008
:100A2000ADF802000399088C20F0010008840398B7
:100A3000008CADF8040003988088ADF8020003989C
:100A4000008BADF80600BDF8060020F07000ADF890
:100A50000600BDF8060020F00300ADF8060002987D
:100A60000188BDF806000843ADF80600BDF8040093
:100A700020F00200ADF8040002980189BDF80400DE
:100A80000843ADF8040002984188BDF8040008430B
:100A9000ADF80400039842F60041C4F20101884217
:100AA00020D0FFE7039843F20041C4F201018842DD
:100AB00018D0FFE7039844F20001C4F20101884214
:100AC00010D0FFE7039844F20041C4F201018842CC
:100AD00008D0FFE7039844F60001C4F20101884200
:100AE00035D1FFE7BDF8040020F00800ADF80400A0
:100AF00002984189BDF804000843ADF80400BDF830
:100B0000040020F00400ADF8040002988188BDF8CC
:100B100004000843ADF80400BDF8020020F4807022
:100B2000ADF80200BDF8020020F40070ADF802003C
:100B300002988189BDF802000843ADF802000298CE
:100B4000C189BDF802000843ADF80200FFE7BDF817
:100B5000020003998880BDF8060003990883029873
:100B6000C08803998886BDF804000399088404B0FE
:100B70007047000082B00190ADF802100020ADF87F
:100B800000000198008BADF80000BDF8000020F0D7
:100B90000800ADF80000BDF80210BDF800000843E1
:100BA000ADF80000BDF800000199088302B070475D
:100BB00082B00190ADF80210BDF80200019988865C
:100BC00002B0704782B00190ADF80210BDF802008B
:100BD0000199888402B0704783B00290019100208F
:100BE000ADF8020002980088ADF80200029842F6C3
:100BF0000041C4F20101884225D0FFE7029843F288
:100C00000041C4F2010188421DD0FFE70298B0F113
:100C1000804F18D0FFE7029840F20041C4F2000173
:100C2000884210D0FFE7029840F60001C4F20001AC
:100C3000884208D0FFE7029840F60041C4F2000164
:100C400088420ED1FFE7BDF8020020F07000ADF839
:100C5000020001984188BDF802000843ADF8020087
:100C6000FFE7029841F20001C4F20001884216D069
:100C7000FFE7029841F20041C4F2000188420ED021
:100C8000FFE7BDF8020020F44070ADF802000198C3
:100C9000C188BDF802000843ADF80200FFE7BDF8C7
:100CA000020002990880019880880299888501983D
:100CB000008802990885029842F60041C4F20101B9
:100CC000884220D0FFE7029843F20041C4F20101BC
:100CD000884218D0FFE7029844F20001C4F20101F3
:100CE000884210D0FFE7029844F20041C4F20101AB
:100CF000884208D0FFE7029844F60001C4F20101DF
:100D0000884205D1FFE70198007A02990886FFE73B
:100D100002990120888203B07047000080B586B038
:100D2000ADF8160000200290ADF812004721ADF892
:100D30000C1044F61F61ADF81010ADF80E004FF026
:100D40008040019003A9FFF747FF01980121FFF7B9
:100D500043FE01980299FFF735FFFFE74FF080400F
:100D6000FFF750FEBDF81610884201DAFFE7F5E7FD
:100D700006B080BD80B582B000200190FFF75AFC1C
:100D8000FFF7E4FAFFF792FCFFF77CFAFFF7F0FDBC
:100D9000FFE7FFE740F60000C4F201001021FFF773
:100DA000DBFB08B1FFE7F5E740F60000C4F2010005
:100DB0001021FFF7D1FB80B9FFE7FFF74DFC01469B
:100DC00040F26000C2F200000170007800F006F806
:100DD00042F21070FFF7A2FFFFE7DAE780B582B0BA
:100DE000ADF80600BDF806004FF4FA61484342F63C
:100DF0008351C0F2D821A0FB01014FF4FA7000EB3F
:100E00005100ADF80400BDF804104FF08040FFF72A
:100E1000CFFE6420FFF782FF02B080BD2C0E0008D9
:0C0E2000000000206806000054010008DB
:04000005080000ED02
:00000001FF
