:020000040800F2
:100000006806002099010008A1010008A30100086A
:10001000A5010008A7010008A901000800000000D0
:10002000000000000000000000000000AB0100081C
:10003000AD01000800000000AF010008B101000898
:10004000B3010008B3010008B3010008B3010008C0
:10005000B3010008B3010008B3010008B3010008B0
:10006000B3010008B3010008B3010008B3010008A0
:10007000B3010008B3010008B3010008B301000890
:10008000B3010008B3010008B3010008B301000880
:10009000B3010008B3010008B3010008B301000870
:1000A000B3010008B3010008B3010008B301000860
:1000B000B3010008B3010008B3010008B301000850
:1000C000B3010008B3010008B3010008B301000840
:1000D000B3010008B3010008B3010008B301000830
:1000E000B3010008B3010008B301000800F002F8F2
:1000F00000F042F814A696E8000CB244B344DA4586
:1001000001D100F039F8BAE80F000FA696E83000E8
:10011000A5EB040504EB0607AAEB0704A7F101070A
:100120004FEA15154FEA3414A4F10104AC4201D38F
:1001300000F022F813F0010F18BFFB1A43F001037F
:1001400000F001F8DBE71847280700003807000037
:10015000704700000023002400250026103A28BF25
:1001600078C1FBD8520728BF30C148BF0B60704729
:100170001FB51FBD10B510BD00F0A8F81146FFF760
:10018000F7FF00F00DFB00F0C6F803B4FFF7F2FF35
:1001900003BC00F0CDF8000009488047094800473B
:1001A000FEE7FEE7FEE7FEE7FEE7FEE7FEE7FEE727
:1001B000FEE7FEE704480549054A064B7047000084
:1001C00091060008ED000008680000206806002085
:1001D0006802002068020020032A40F2308010F0FC
:1001E000030C00F0158011F8013BBCF1020F6244D2
:1001F00098BF11F801CB00F8013B38BF11F8013B63
:10020000A2F1040298BF00F801CB38BF00F8013B0F
:1002100011F0030300F02880083AC0F0088051F87C
:10022000043B083A51F804CBA0E80810F5E7121D8A
:100230005CBF51F8043B40F8043BAFF30080D207A9
:1002400024BF11F8013B11F801CB48BF11F8012B75
:1002500024BF00F8013B00F801CB48BF00F8012B98
:10026000704770477047704710B5203AC0F00B8058
:10027000B1E81850A0E81850B1E81850A0E818509C
:10028000203ABFF4F5AF5FEA027C24BFB1E8185012
:10029000A0E8185044BF18C918C0BDE810405FEA74
:1002A000827C24BF51F8043B40F8043B08BF7047F0
:1002B000D20728BF31F8023B48BF11F8012B28BFF5
:1002C00020F8023B48BF00F8012B7047754600F04C
:1002D0002BF8AE4605006946534620F007008546D8
:1002E00018B020B5FFF766FFBDE820404FF00006CC
:1002F0004FF000074FF000084FF0000BAC46ACE8A1
:10030000C009ACE8C009ACE8C009ACE8C00921F0FC
:1003100007018D46704710B50446AFF300802046B4
:10032000BDE81040FFF731BF0048704700000020D3
:1003300001491820ABBEFEE726000200704700000E
:100340001022002908BF0C22815841F02001815061
:1003500070470000B0B546F20061C4F2000190F8A9
:100360000AE0037B0A68012442F001020A60CA69BC
:1003700004FA0EF56FEA050CAA43012BCA610DD0F1
:10038000F3B9CA6802EA0C02CA60C288438843EA29
:10039000024201EBCE031A6403460AE0CA682A430C
:1003A000CA600288438843EA024201EBCE031A6422
:1003B000831D82881B8843EA024201EBCE035A6404
:1003C000C27A4B68002A43EA050408BF03EA0C041A
:1003D0004C600389012B04D03BB94A6902EA0C0343
:1003E00002E04A6942EA05034B61407B012802D1E1
:1003F000C8692843C861086820F001000860B0BDE2
:1004000010B502684FF0000C22F002020260026890
:1004100042F0010202604FF6FF7200BFD0F804E024
:10042000013A4CF100045FEACE7301D1002CF5D102
:100430004268D2074FF0000252D08B790468012B3A
:1004400024F0800408BF80340460CB790468012B59
:1004500024F0400408BF403404600B7A0468012B88
:1004600024F0200408BF203404604B7A0468012B78
:1004700024F0100408BF103404608B7A0468012B48
:1004800024F0080408BF08340460CB7A0468012B08
:1004900024F0040408BF04340460CC7891F802C04E
:1004A0000B79240691F805E044EA8C74098844EA43
:1004B000034343EA0E5301391943C161016821F036
:1004C000010101604FF6FF714468013942F10003F8
:1004D000E40718BF002BF7D14068012121EA000290
:1004E000104610BD012905D000291CBF002070470F
:1004F0000C3000E01030006800F00300704700008E
:1005000010B500EB0114D4F8B0C11CF00403137251
:10051000D4F8B0E104F5D87C19BF4FEADE0353608C
:100520004FEA5E531360DCF80030002903F0020349
:100530005372D4F8B43103F00F039372D4F8B4318A
:100540004FEA1323D374D4F8B831D372D4F8B83146
:100550004FEA13231373D4F8B8314FEA134353739C
:10056000D4F8B8314FEA13639373D4F8BC31D37322
:10057000D4F8BC314FEA13231374D4F8BC314FEADA
:1005800013435374D4F8BC314FEA136393744FF0A0
:10059000100208BF0C22815841F02001815010BD8B
:1005A000CA7802F00F0CD30644BF8B784CEA030CD8
:1005B0002DE9F04709880B0625D082465AF8144BDE
:1005C00000F1100E00254FF001094FF00F08002731
:1005D00006E000BF1E600137082F05F1040511D0A9
:1005E00009FA07F60E42F6D008FA05F324EA0303E7
:1005F0000CFA05F41C43282A5346EBD0482AEAD1CA
:100600007346E7E70460B1F5807F38BFBDE8F08747
:10061000436800F1100E00F1140900254FF4807AB0
:100620004FF00F08002705E034600137082F05F16F
:10063000040512D00AFA07F404EA0106A642F4D12E
:1006400008FA05F6B3430CFA05F63343282A4E465A
:10065000EAD0482AE9D17646E6E74360BDE8F0876C
:10066000002941F21C01C4F202010A680CBF22EA0F
:100670000000104308607047002941F21801C4F2DD
:1006800002010A680CBF22EA0000104308607047AC
:1006900082B041F20400C4F2020050F8041C0022AF
:1006A00041F0010140F8041C0168CFF6FF0211403F
:1006B000016050F8041C4FF6FF72CFF6F66211404D
:1006C00040F8041C50F8041C21F4802140F8041C5C
:1006D000016821F4FE0101604FF41F014160002117
:1006E0000191009150F8041C41F4803140F8041C41
:1006F00050F8041C01F4003100910199013101917D
:10070000009919B90199B1F5A06FF1D150F8041C05
:10071000890354BF0021012100910099012936D19C
:1007200042F20001C4F202010A6842F010020A60BB
:100730000A6822F007020A600A6842F002020A60B0
:100740000168016001680160016841F48061016035
:10075000016821F47C110160016841F4E811016035
:1007600050F8041C41F0807140F8041C50F8041C3F
:100770008901FBD5016821F003010160016841F0A6
:1007800002010160016801F00C010829FAD14EF65E
:100790000850CEF200004FF00061016002B07047D7
:1007A00086B046F2004404200121C4F20004FFF7A1
:1007B00063FF40F60000C0F2034004F5244601AD9B
:1007C000019030462946FFF7EBFE41F20000C1F6EA
:1007D0000300019030462946FFF7E2FE4FF000701B
:1007E0000121FFF73DFF0020C0F20570CDF80600A3
:1007F00040F20010C0F20100CDF80A0006200026E9
:10080000ADF8040001A92046ADF80E60FFF7F8FD31
:100810000020C0F20110CDF80E0042F260400190BD
:100820004FF6E070ADF80C6001AE02903046FFF775
:1008300091FD40F260070B36C2F2000704E000BFF2
:1008400020460021FFF77CFD20460021FFF74AFEED
:100850000028F9D0204600212A46FFF751FE9DF8D6
:100860000E20002AECD038463146FFF7B5FCE7E70A
:1008700080080008000000206806000054010008FD
:04000005080000ED02
:00000001FF
