:020000040800F2
:100000008806002099010008A1010008A30100084A
:10001000A5010008A7010008A901000800000000D0
:10002000000000000000000000000000AB0100081C
:10003000AD01000800000000AF010008B101000898
:10004000B3010008B3010008B3010008B3010008C0
:10005000B3010008B3010008B3010008B3010008B0
:10006000B3010008B3010008B3010008B3010008A0
:10007000B3010008B3010008B3010008B301000890
:10008000B3010008B3010008B3010008B301000880
:10009000B3010008B3010008B3010008B301000870
:1000A000B3010008B3010008B3010008B301000860
:1000B000B3010008B3010008B3010008B301000850
:1000C000B3010008B3010008B3010008B301000840
:1000D000B3010008B3010008B3010008B301000830
:1000E000B3010008B3010008B301000800F002F8F2
:1000F00000F042F814A696E8000CB244B344DA4586
:1001000001D100F039F8BAE80F000FA696E83000E8
:10011000A5EB040504EB0607AAEB0704A7F101070A
:100120004FEA15154FEA3414A4F10104AC4201D38F
:1001300000F022F813F0010F18BFFB1A43F001037F
:1001400000F001F8DBE71847801800009018000065
:10015000704700000023002400250026103A28BF25
:1001600078C1FBD8520728BF30C148BF0B60704729
:100170001FB51FBD10B510BD00F031F81146FFF7D7
:10018000F7FF00F0CDFD00F04FF803B4FFF7F2FFEA
:1001900003BC00F057F800000948804709480047B1
:1001A000FEE7FEE7FEE7FEE7FEE7FEE7FEE7FEE727
:1001B000FEE7FEE704480549054A064B7047000084
:1001C000C50A0008ED00000888000020880600200D
:1001D00088020020880200207047704770477546EB
:1001E00000F02CF8AE4605006946534620F00700A3
:1001F000854618B020B5FFF7DDFFBDE820404FF081
:1002000000064FF000074FF000084FF0000BAC461F
:10021000ACE8C009ACE8C009ACE8C009ACE8C0096A
:1002200021F007018D46704710B50446AFF30080FA
:100230002046BDE81040FFF7A8BF00000048704707
:100240000000002001491820ABBEFEE72600020096
:100250007047000082B001908DF803109DF80300F4
:1002600030B1FFE70199886840F00100886005E03F
:100270000199886820F001008860FFE702B07047AC
:1002800080B588B000200390012202928DF81C20D6
:100290008DF811204FF4602105918DF81000069023
:1002A00042F20040C4F2010001900523114600F023
:1002B00065F8019803A900F013F801980299FFF777
:1002C000C9FF0198029900F017F908B080BD00003D
:1002D00081B000900098C06C80B201B070470000FF
:1002E00084B003900291002001908DF803000398E0
:1002F0004068019001984FF6FF61CFF6F071084019
:10030000019002990868097940EA0121019808439F
:1003100001900198039948600398806801900198C2
:100320004FF2FD71CFF6F171084001900299C86853
:100330008A681043497940EA4101019808430190D5
:100340000198039988600398C06A0190019820F48D
:10035000700001900298007C411E9DF80300084344
:100360008DF803009DF80310019840EA01500190B8
:1003700001980399C86204B07047000084B00390EC
:100380008DF80B108DF80A208DF8093000200190AF
:1003900000909DF80B000A2821DBFFE70398C06856
:1003A00001909DF80B0000EB4000A0F11E0107201A
:1003B0008840009000990198884301909DF80900B9
:1003C0009DF80B1001EB41011E3988400090009907
:1003D00001980843019001980399C8601DE00398B3
:1003E000006901909DF80B0000EB40010720884058
:1003F000009000990198884301909DF809009DF8AC
:100400000B1001EB410188400090009901980843CE
:100410000190019803990861FFE79DF80A000628FA
:1004200020DCFFE70398406B01909DF80A0000EB89
:100430008000411F1F208840009000990198884348
:1004400001909DF80B009DF80A1001EB8101053920
:100450008840009000990198084301900198039901
:10046000486347E09DF80A000C2821DCFFE7039869
:10047000006B01909DF80A0000EB8000A0F12301C1
:100480001F208840009000990198884301909DF8B2
:100490000B009DF80A1001EB810123398840009080
:1004A000009901980843019001980399086320E09E
:1004B0000398C06A01909DF80A0000EB8000A0F14B
:1004C00041011F20884000900099019888430190C5
:1004D0009DF80B009DF80A1001EB8101413988401D
:1004E0000090009901980843019001980399C8620F
:1004F000FFE7FFE704B0704782B001908DF803106A
:100500009DF8030030B1FFE70199886840F4A0002E
:10051000886005E00199886820F4A0008860FFE702
:1005200002B0704780B584B00220ADF80C00002006
:100530008DF80F00032000908DF80E0040F60000AB
:10054000C4F20100019003A9029100F029F8009A79
:1005500001980299A023ADF80C3018238DF80F30C4
:100560008DF80E2000F01CF8009A019802994023A3
:10057000ADF80C3004238DF80F308DF80E2000F00C
:100580000FF8009A019802991023ADF80C308DF8FD
:100590000F308DF80E2000F003F804B080BD00008D
:1005A00088B0079006910020059004900390029077
:1005B000019000900698C07800F00F000590069812
:1005C000C078C006002806D5FFE706988178059810
:1005D00008430590FFE70698007800284BD0FFE716
:1005E00007980068019000200390FFE70398072810
:1005F0003DD8FFE7039901208840029006980088C3
:100600000299084004900498029988422AD1FFE791
:1006100003988000029002990F2088400090009972
:100620000198884301900598029900FA01F1019818
:10063000084301900698C078282806D1FFE703995F
:1006400001208840079948610BE00698C078482847
:1006500006D1FFE703990120884007990861FFE769
:10066000FFE7FFE7FFE7039801300390BEE701983B
:1006700007990860FFE706980088B0F5807F50DB97
:10068000FFE707984068019000200390FFE7039878
:10069000072842D8FFE7039800F1080101208840AD
:1006A00002900698008802990840049004980299E4
:1006B00088422DD1FFE703988000029002990F2015
:1006C000884000900099019888430190059802990C
:1006D00000FA01F10198084301900698C078282893
:1006E00008D1FFE7039800F108010120884007992D
:1006F0004861FFE70698C078482808D1FFE70398CB
:1007000000F108010120884007990861FFE7FFE731
:10071000FFE7039801300390B9E701980799486013
:10072000FFE708B07047000082B00190ADF80210FA
:100730008DF801209DF8010028B1FFE7BDF8020007
:100740000199086104E0BDF8020001994861FFE7E2
:1007500002B0704782B001908DF803109DF803003D
:1007600048B1FFE7019A41F21C01C4F20201086896
:100770001043086008E0019A41F21C01C4F2020132
:10078000086890430860FFE702B0704782B00190AC
:100790008DF803109DF8030048B1FFE7019A41F27C
:1007A0001801C4F2020108681043086008E0019AC9
:1007B00041F21801C4F20201086890430860FFE7A3
:1007C00002B0704780B582B041F20420012101914E
:1007D000FFF7DCFF01990846FFF7BCFF02B080BDC0
:1007E00082B001908DF803109DF8030030B1FFE74F
:1007F0000199088840F04000088005E001990888C8
:1008000020F040000880FFE702B0704780B586B056
:100810004FF48270ADF808000020ADF80600ADF886
:100820000A00ADF80C00ADF80E000721ADF8161067
:10083000ADF814001820ADF812004FF40070ADF8B8
:10084000100043F20000C4F2010000900DF1060117
:1008500000F02CF800980121FFF7C2FF06B080BD20
:1008600082B00190ADF8021000208DF801000198CF
:100870000089BDF802100840000420B1FFE7012004
:100880008DF8010003E000208DF80100FFE79DF8DE
:10089000010002B07047000082B00190ADF8021074
:1008A000BDF802000199888102B0704783B00290C0
:1008B00001910020ADF8020002980088ADF8020016
:1008C000BDF8020000F44150ADF80200019908881B
:1008D0004A8810438A881043CA8810430A89104303
:1008E0004A8910438A891043C9890143BDF802002F
:1008F0000843ADF80200BDF8020002990880029991
:10090000888B20F4006088830198008A029908820D
:1009100003B0704780B582B08DF8070040F6000044
:10092000C4F2010010210022FFF7FEFE9DF807101F
:1009300043F20000C4F20100FFF7AEFFFFE743F20D
:100940000000C4F201000221FFF78AFF08B9FFE7A7
:10095000F5E740F60000C4F2010010210122FFF784
:10096000E3FE02B080BD000080B500F001F880BD5C
:1009700084B000200390029041F20001C4F2020111
:10098000086840F480300860FFE741F20000C4F2DC
:100990000200006800F400300290039801300390D8
:1009A000FFE702990020019039B9FFE70398B0F5FD
:1009B000A06018BF01200190FFE70198C007002840
:1009C000E3D1FFE741F20000C4F2020000688003B7
:1009D000002803D5FFE70120029002E000200290EA
:1009E000FFE70298012851D1FFE742F20001C4F26B
:1009F0000201086840F010000860086820F0070055
:100A00000860086840F00200086041F20401C4F286
:100A1000020100910868086008680860086840F4EE
:100A200080600860086820F47C100860086840F462
:100A3000E810086041F20001C4F20201086840F0C9
:100A400080700860FFE741F20000C4F20200006815
:100A50008001002801D4FFE7F5E741F20401C4F268
:100A60000201086820F003000860086840F00200F6
:100A70000860FFE741F20400C4F20200006800F0E1
:100A80000C00082801D0FFE7F4E700E0FFE704B01E
:100A90007047000083B0029001910092029840F2EA
:100AA0006801C2F200010860019840F26401C2F2DC
:100AB00000010860009840F27401C2F20001086071
:100AC00003B0704780B541F20002C4F20202106820
:100AD00040F00100106041F20401C4F20201086814
:100AE0000023CFF6FF031840086010684FF6FF732D
:100AF000CFF6F66318401060106820F48020106074
:100B0000086820F4FE00086041F20801C4F2020106
:100B10004FF41F000860FFF727FF4EF60851CEF292
:100B200000014FF00060086080BD000080B584B017
:100B30000020ADF80C004721ADF8061044F61F6107
:100B4000ADF80A10ADF808004FF0804000900DF1AC
:100B5000060100F02DF80098012100F003F804B020
:100B600080BD000082B001908DF803109DF8030055
:100B700030B1FFE70199088840F00100088005E0E6
:100B80000199088820F001000880FFE702B0704753
:100B900081B000900098808C01B0704782B00190C5
:100BA000ADF80210BDF802000199888402B07047C8
:100BB00083B0029001910020ADF8020002980088F5
:100BC000ADF80200029842F60041C4F201018842E9
:100BD00025D0FFE7029843F20041C4F201018842A8
:100BE0001DD0FFE70298B0F1804F18D0FFE70298C0
:100BF00040F20041C4F20001884210D0FFE70298A1
:100C000040F60001C4F20001884208D0FFE70298D4
:100C100040F60041C4F2000188420ED1FFE7BDF862
:100C2000020020F07000ADF8020001984188BDF884
:100C300002000843ADF80200FFE7029841F200010C
:100C4000C4F20001884216D0FFE7029841F2004149
:100C5000C4F2000188420ED0FFE7BDF8020020F484
:100C60004070ADF802000198C188BDF80200084349
:100C7000ADF80200FFE7BDF8020002990880019874
:100C800080880299888501980088029908850298D1
:100C900042F60041C4F20101884220D0FFE70298E9
:100CA00043F20041C4F20101884218D0FFE70298E4
:100CB00044F20001C4F20101884210D0FFE702981B
:100CC00044F20041C4F20101884208D0FFE70298D3
:100CD00044F60001C4F20101884205D1FFE7019802
:100CE000007A02990886FFE702990120888203B002
:100CF0007047000080B582B0ADF806004FF080402C
:100D00000021FFF74BFFFFE74FF08040FFF740FF68
:100D1000BDF80610884201DAFFE7F5E702B080BDB2
:100D200080B582B000200190FFF74CFDFFF7FAFB81
:100D3000FFF7A6FAFFF76AFDFFF7F8FE4FF07E50C7
:100D40004FF0804141F26F22C3F68322FFF7A2FEEB
:100D5000FFE742F20040C4F20100FFF7B9FA014692
:100D600040F28000C2F200000180008800F0D6FC52
:100D700000F020F840F27C01C2F20001009108600E
:100D80006420FFF7B7FF009800680021C4F23431F7
:100D900000F0D8FC4FF08B4100F0E2FB00F0A2FC29
:100DA000014640F27800C2F2000001700078FFF7BF
:100DB000B1FDCEE780B590B00F9040F26400C2F272
:100DC00000000C900068009040F26801C2F200013F
:100DD000096800F063FB0146009800F0C1FB014682
:100DE00040F26C00C2F200000390016040F270011A
:100DF000C2F200010D9109680291006801900F98FC
:100E000000F06CFD0146019800F09CFC029900F096
:100E100045FB0146039840F26002C2F200020E92C6
:100E20001160006800F00EFB02460B460020002116
:100E3000C3F6F07100F018FA02460C980892099176
:100E4000006800F0FFFA02460D9806920A460E99D5
:100E500007920068096800F041FD00F0F3FA049081
:100E600021F00040059040F27400C2F200000068DA
:100E700000F0E8FA024604980B46059900F0F6F8EF
:100E8000069A079B84460898CDF828C08C46099995
:100E9000CDF82CC000F0EAF80A9A0B9B00F03EF85F
:100EA00000F00AF80C9B0D9A01460E981960016833
:100EB0001160006810B080BD21F0004201F00043D5
:100EC000A2F16052B2F5801F28BFD2F17F6C0BD91E
:100ED0005FEA001C43EAC20242EB507018BF704741
:100EE00028BF20F001007047B2F5801FBCBF184634
:100EF00070474FEA410C1CF5001F02D2084600F073
:100F0000E8BC70B500F05CF900000089FFF7F6BF9F
:100F10004FF00040A0F580007047000010B591EA46
:100F2000030F48BF83F0004300F1A681841A71EBE0
:100F3000030C05D2121943EB0C03001B61EB0C01EF
:100F40004FEA1154A4EB135CDFF81CE11EEA430FD7
:100F500018BF9EEA445F00F0748021EA045123EA3E
:100F60000E0343F48013DCF1200E32D322FA0CFE80
:100F700010EB0E0023FA0CFE41EB0E01CCF1200E1B
:100F800003FA0EFE10EB0E00CCF1200E51F1000121
:100F9000B1F5801F32D201EB045112FA0EF2BDE816
:100FA000104058BF7047401C38BF5FEA420218BF6C
:100FB0007047002814BF20F0010041F100014FEA02
:100FC000410313F5001F38BF7047A1F1C04100F085
:100FD00045B9012A43EB0302ACF1200CDCF11F0EF2
:100FE00032BF4FF0000E23FA0CF310EB030041EB7D
:100FF0000451B4EB115FD0D0A1EB045101F5801185
:10100000490801EB04515FEA30000ED350F10000B3
:1010100038BF12FA0EFE08D1BDE81040C9E7401CE7
:1010200038BF5FEA4202CAD1C3E7BDE810404FEAC9
:10103000410313F5001F38BF7047A1F1C04100F014
:101040000DB99EEA445F08D011EA5E0FBDE810407A
:1010500004BF01F0004100207047BDE8104070B5AA
:1010600000F0AEF864FBBE3E0000E0FF70B5DFF8B4
:1010700048C11CEA111E1EBF1CEA13159EEA0C0F84
:1010800095EA0C0F00F06F8081EA03044EEAD47EEB
:10109000AE4421EA4C1123EA4C1341F4801143F48D
:1010A0008013AEF17F7EA1FB024CA0FB03653619D5
:1010B00055EB0C05A1FB034C4CF10003A0FB021CFB
:1010C00016EB0C06654153F10003094218BF46F0C8
:1010D000010613F4007F0BD14FEA03314FEA0530CC
:1010E00041EA155140EA165034036FF003020AE05A
:1010F0004FEAC3214FEAC52041EA555140EA565014
:10110000F4026FF0020202EB2E4201EB025585EA77
:10111000CE710AD05FEA440C18BF24F0004450F1AD
:10112000000041F1000120EAD47040F2FE7C6245EB
:1011300000D270BDA84214BF4FF080444FF040442D
:10114000002E08BF0024BEF1806FA8BFA1F1C041EE
:10115000BDE8704080F2828001F1C04101F00041A1
:101160004FF0000070470CEA13159EEA0C0F18BFF1
:1011700095EA0C0F06D081EA030E4FF000000EF046
:10118000004170BD00F01CF88900013E00F007B876
:1011900000F009B84FEA430C5FEA5C5C08D081EAD2
:1011A000030100F05BB84FEA410C5FEA5C5CF6D1EA
:1011B00002494FF0000070470000FF070000F87F71
:1011C0000EF1020E2EF0030E5EF8046B364205D4CB
:1011D000012A43EB030515F5001F12D8012841EB46
:1011E000010C1CF5001F0CD80ED14FEAD17C0CEB82
:1011F0004C0C0CF1020C15F5001F08BF4CEBD37C16
:1012000004E04FF0080C01E04FEAD37C0CEB4C05F6
:1012100026FA05F606F00706B6F1040C06D20EEB28
:10122000860CBDE870404CF0010C6047DFE80CF024
:10123000090B02024FF00041A1F500214FF0000020
:1012400070BD19461046012851EB010418BFD4F5B2
:10125000001484BF002001F0004170BD0808A0F513
:1012600000114FEA3101704710B591EA030F48BFF2
:1012700083F000433FF55AAE841A71EB030C07D29A
:101280008CF0004C121943EB0C03001B61EB0C01BA
:101290004FEA1154A4EB135CDFF8A4E11EEA430FFC
:1012A00018BF9EEA445F00F0B48021EA045123EAAB
:1012B0006E035242C3EB6E0338BF5B1EDCF1200E9F
:1012C00025D322FA0CFE10EB0E0043FA0CFE41EB84
:1012D0000E01CCF1200E03FA0EFE10EB0E00CCF145
:1012E000200E51F1000129D401EB045112FA0EF243
:1012F000BDE8104058BF7047401C1CBFB2F1004F02
:10130000704700280CBF491C20F00100704712EB09
:10131000020E43EB030218BF4FF0010E4EEA4202E9
:10132000ACF1200CDCF11E0E56D943FA0CFE10EB8A
:101330000E00CCF11E0E51F1FF31D5D50EF1010E8C
:1013400012FA0EFE404141EB010101EB445C5FEA01
:101350005C5C10D901EB045110EBDE7038BFBEF1BC
:10136000004FBDE8104018BF704700280CBF491C53
:1013700020F00100704734D24FEAD42C24F40064EA
:1013800011F500111BD0B1FA81F20B3AA41AA41E78
:10139000D2F12003914030FA03F31943904001EB5E
:1013A000CC7101EB0451002CBDE81040A8BF704780
:1013B00001F1C04101F000414FF000007047B0FA68
:1013C00080F310FA03F102D1BDE810407047E41A2F
:1013D000173C4805C90AE2E701EB0451BDE810409B
:1013E000704749104FEA300001EB0451BDE810404E
:1013F00002E04FF0000170474A0008BF0042F8D0F9
:10140000B2F5001F28BF704701F000414FF0000007
:1014100070479EEA445F07D011EA5E0FBDE81040B6
:1014200004BF002100207047BDE8104070B5FFF7F1
:10143000C7FE00BF40DFF63E104683F00041704714
:101440000000E0FF43004FEAD30C4FEA3C0C43405E
:101450001FBF40070CF1605113F0FE4F70471CF0A6
:10146000006F03D10CF00041002070470CF00043E6
:1014700043EA507040EACC0010B500F0E4F900BF38
:10148000000000924FEA0001FFF7E8BE4FF0004174
:10149000A1F500214FF000007047000090EA010F15
:1014A00048BF81F0004100F12082421A3CBF801AFF
:1014B00089184FEAD052A2EBD1534FF07F4C1CEA6F
:1014C000410F18BF9CEA026F00F03B804FF0004CC8
:1014D0004CEA00204CEA012121FA03FC10EB0C0C31
:1014E0001ED202F1FF325FEA1C2040EBC25038BF2F
:1014F00070471CF07F0F4FEA400C18BFBCF17F4FC4
:1015000038BF7047C3F12003994008BF20F00100A5
:10151000BCF17F4F38BF7047A0F1C04000F0D9B98F
:101520004FEA3C00000A40EBC25028BF1CF0FF0FFE
:101530004FEA400CE6D018BFBCF17F4F38BF704770
:10154000EAE79CEA026F05D010EA5C0F08BF00F0E2
:101550000040704710B500F076F900BF64FBBE3E56
:101560004FF47F0C1CEAD0121EBF1CEAD11392EA82
:101570000C0F93EA0C0F00F0858090EA010F48BF32
:1015800042F4807240F4000C41F400002CF07F41E2
:1015900020F07F4000B5A2EB030281420FF2081C4D
:1015A000ACEB504E9EF800E0C0F100004FEA4E0E4A
:1015B00000FB0EFC38BF49004FEA2C1C0CFB0EF35D
:1015C0004FEACE1E0EEB635E4FEA112C0EFB0CFCB5
:1015D0004FEAC1214FEA1C5300FB031102F5FA0246
:1015E0004FEA112C0EFB0CFC4FEA01314FEADC4CA8
:1015F00000FB0C1142EB2242C14228BF09184CEB00
:1016000003335DF804EB10EB410143EBC250B2F53C
:101610007C0F38BF704729D512F0F00F1CBF00F1C6
:10162000C04000F000407047008182838485868737
:1016300088898B8C8D8E8F919293959697999A9C91
:101640009D9FA0A2A3A5A7A8AAACAEB0B2B3B5B700
:10165000B9BCBEC0C2C5C7C9CCCED1D4D7D9DCDFD6
:10166000E2E6E9ECF0F3F7FAFE0000004FEA400C86
:101670000CF1807CBCF17E4F28BF7047B0F1C040B8
:1016800000F027B90CEAD11390EA010F48BF42F4E9
:101690008072624538BF634507D213F47F0F16D0BE
:1016A00080EA010000F00040704710B500F0CBF870
:1016B000097EFC3E00F005B880EA010000F0004021
:1016C000704780EA010000F0004000F002B912F417
:1016D0007F0F04BF0248704780EA010000F0F9B8AC
:1016E0000000C07F41000B0ED3F19E0208D950F4D8
:1016F00000034FEA032323FA02F048BF4042704739
:1017000010B500F0A0F800BF499224800020704777
:101710006FF0004282EA200070470000B0FA80F3C8
:1017200010FA03F2C3F19D030AD0D90501EB122090
:10173000530638BF704700F1010008BF20F00100D8
:10174000704700004FF47F0C1CEAD0121EBF1CEA49
:10175000D11392EA0C0F93EA0C0F00F0478090EA45
:10176000010F48BF42F480724FF0004C4CEA002059
:101770004CEA012102EB0302A0FB0113A2F50002D7
:10178000002918BF43F001035B0028BF4FEA330371
:1017900042EB22425FEA132C4CEBC2502EBFBCEB53
:1017A000436FB2F57C0F70474FEA036CBCF1004FFA
:1017B00008BF20F00100B2F57C0F38BF70470BD591
:1017C00082F0FF0212F5803FC8BF704700F1C040B1
:1017D000D8BF00F00040704700F5000C5FEA4C0CE9
:1017E00048BF7047B0F1C04000F073B80CEAD113A5
:1017F00090EA010F48BF42F48072624538BF6345EA
:1018000004D280EA010000F00040704710B500F0FB
:101810001AF800BF8900013E00F007B800F009B8CF
:101820005FEA410C5FEA1C6C08D080EA010000F01E
:1018300050B85FEA400C5FEA1C6CF6D14FF00040F4
:10184000A0F5800070470EF1020E2EF0030E5EF838
:10185000044B244204D44FEA4102B2F17F4F11D825
:101860004FEA4003B3F17F4F0CD80ED14FEAD07C42
:101870000CEB4C0C0CF1020CB2F17F4F08BF4CEB9F
:10188000D17C04E04FF0080C01E04FEAD17C0CEB76
:101890004C0324FA03F404F00704B4F1040C06D258
:1018A0000EEB840CBDE810404CF0010C6047DFE803
:1018B0000CF0070802024FF00040A0F5800010BDB8
:1018C0000846420018BFD2F1807288BF00F0004085
:1018D00010BDFF2141EAD050C005704790EA010FCA
:1018E00048BF81F000413FF5E0AD421A04D882F0D4
:1018F0000042A0EB020011444FEAD052A2EBD153B8
:101900004FF07F4C1CEA410F18BF9CEA026F4AD08F
:101910004FF0004C4CEA00204CEA012121FA03FC74
:10192000B0EB0C0C0FD412F0FE0F36D05FEA4C0077
:101930001DD5001240EBC25038BF70471CF03F0F5E
:1019400018BF70470BE05FEA1C20A2F1010240EBD8
:10195000C25038BF70471CF07F0F18BF7047C3F1EB
:101960002003994014BF401E20F0010070474FEA49
:101970001223800808BF7047B0FA80FCA2EB0C026B
:10198000CCF1280C60FA0CF093EA122F04BF00EBA4
:10199000C25070474FEAC3707047130A5FEADC1009
:1019A00008BF7047F6E79CEA026F04D010EA5C0FAC
:1019B00008BF0020704710B5FFF745FF40DFF63E37
:1019C00081F0004070470000D81900080000002096
:0819D000880600005401000824
:04000005080000ED02
:00000001FF
