:020000040800F2
:1000000080060020B5010008BD010008BF010008FE
:10001000C1010008C3010008C5010008000000007C
:10002000000000000000000000000000C701000800
:10003000C901000800000000CB010008CD01000844
:10004000CF010008CF010008CF010008CF01000850
:10005000CF010008CF010008CF010008CF01000840
:10006000CF010008CF010008CF010008CF01000830
:10007000CF010008CF010008CF010008CF01000820
:10008000CF010008CF010008CF010008CF01000810
:10009000CF010008CF010008CF010008CF01000800
:1000A000CF010008CF010008CF010008CF010008F0
:1000B000CF010008CF010008CF010008CF010008E0
:1000C000CF010008CF010008CF010008CF010008D0
:1000D000CF010008CF010008CF010008CF010008C0
:1000E000CF010008CF010008CF01000800F002F89E
:1000F00000F050F814A696E8000CB244B344DA4578
:1001000001D100F047F8BAE80F000FA696E83000DA
:10011000A5EB040504EB0607AAEB0704A7F101070A
:100120004FEA15154FEA3414A4F10104AC4201D38F
:1001300000F030F813F0010F18BFFB1A43F0010371
:1001400000F001F8DBE718475405000074050000D3
:10015000103A24BF78C878C1FAD8520724BF30C8F3
:1001600030C144BF04680C60704700007047000055
:100170000023002400250026103A28BF78C1FBD8B0
:10018000520728BF30C148BF0B6070471FB51FBD65
:1001900010B510BD00F031F81146FFF7F7FF00F081
:1001A00025FA00F04FF803B4FFF7F2FF03BC00F0AC
:1001B00057F800000948804709480047FEE7FEE776
:1001C000FEE7FEE7FEE7FEE7FEE7FEE7FEE7FEE707
:1001D00004480549054A064B70470000DD04000845
:1001E000ED00000880000020800600208002002032
:1001F00080020020704770477047754600F02CF869
:10020000AE4605006946534620F00700854618B003
:1002100020B5FFF7DDFFBDE820404FF000064FF0AE
:1002200000074FF000084FF0000BAC46ACE8C009E7
:10023000ACE8C009ACE8C009ACE8C00921F007018E
:100240008D46704710B50446AFF300802046BDE8E8
:100250001040FFF7A8BF00000048704710000020C2
:1002600001491820ABBEFEE72600020070470000DF
:1002700042F20C02C4F2020211688446C9070BD193
:10028000106840070CD41068C0064FF0030058BF38
:100290000420012807D024E00120012803D020E019
:1002A000022001281DD14FF4302100BF1068C00783
:1002B0000AD11068400709D41068C0064FF0030047
:1002C00058BF042003E000BF012000E00220012805
:1002D000A1F1010302D101291946E7D1002B08BF82
:1002E0000520042818BF7047506840F00200506095
:1002F000C2F808C0506840F0400050601068C00765
:100300000BD1106840070CD41068C0064FF00300F2
:1003100058BF0420012807D023E00120012803D082
:100320001FE0022001281CD14FF430211068C007C3
:100330000AD11068400709D41068C0064FF00300C6
:1003400058BF042003E000BF012000E00220012884
:10035000A1F1010302D101291946E7D1002B08BF01
:100360000520516841F6FD73194051607047000047
:1003700042F20C010128C4F2020103D1086900F025
:10038000010070470968084018BF0120704700004D
:1003900042F21000C4F20200016841F080010160E5
:1003A0007047000080B542F20C0EC4F2020EDEF877
:1003B00000208446D2070DD1DEF8000040070DD49E
:1003C000DEF80000C0064FF0030058BF04200128EB
:1003D00007D026E00120012803D022E002200128D6
:1003E0001FD14FF4005300BFDEF80000C0070BD14F
:1003F000DEF80000400709D4DEF80000C0064FF028
:10040000030058BF042002E0012000E00220012880
:10041000A3F1010202D1012B1346E5D1002A08BF46
:100420000520042818BF80BDDEF8040040F001005C
:10043000CEF80400ACF80010DEF80000C0070DD1C3
:10044000DEF8000040070DD4DEF80000C0064FF0D3
:10045000030058BF0420012807D026E0012001280E
:1004600003D022E0022001281FD14FF4005100BF29
:10047000DEF80000C0070BD1DEF80000400709D409
:10048000DEF80000C0064FF0030058BF042002E071
:10049000012000E002200128A1F1010202D101297E
:1004A0001146E5D1002A08BF0520DEF8041041F608
:1004B000FE721140CEF8041080BD000042F204002C
:1004C00040F22311C4F20200C4F26751016048F601
:1004D000AB11CCF6EF5101607047000082B041F2E1
:1004E0000400C4F2020050F8041C002241F0010193
:1004F00040F8041C0168CFF6FF021140016050F87B
:10050000041C4FF6FF72CFF6F662114040F8041C4F
:1005100050F8041C21F4802140F8041C016821F4E7
:10052000FE0101604FF41F01416000210191009123
:1005300050F8041C41F4803140F8041C50F8041CAD
:1005400001F400310091019901310191009919B92B
:100550000199B1F5A06FF1D150F8041C890354BF83
:100560000021012100910099012936D142F20001B8
:10057000C4F202010A6842F010020A600A6822F01E
:1005800007020A600A6842F002020A60016801601C
:1005900001680160016841F480610160016821F433
:1005A0007C110160016841F4E811016050F8041CFD
:1005B00041F0807140F8041C50F8041C8901FBD5FF
:1005C000016821F003010160016841F0020101604E
:1005D000016801F00C010829FAD14EF60850CEF25C
:1005E00000004FF00061016002B07047FFF766FF46
:1005F0000120FFF7BDFE0128FAD00024C0F6010457
:100600002046FFF735FE00BF0120FFF7B1FE0128AD
:10061000FAD0FFF7BDFEFFF751FF00BF0120FFF743
:10062000A7FE0128FAD040F20005C2F2000500261C
:10063000298844EA4600FFF7B5FE00BF0120FFF716
:1006400097FE0128FAD00136072E05F10205EFD1F9
:10065000FFF79EFE40F270010020C2F2000100BFD1
:10066000025D0A5401300C28FAD1FFF727FF00BFC2
:100670000120FFF77DFE0128FAD004F120004AF6A0
:10068000AA21FFF78FFE00BF0120FFF771FE0128AE
:10069000FAD0FFF77DFE00BFFEE70000C0060008AD
:1006A000000000201000000050010008D0060008E3
:1006B000100000207006000070010008000000001B
:1006C000050207040206030F11140B17191300008B
:04000005080000ED02
:00000001FF
